:020000023000CC
:10000000BA0000EA14F09FE514F09FE514F09FE5B4
:1000100014F09FE514F09FE514F09FE514F09FE5C0
:10002000400003006000030080000300A000030004
:10003000C0000300E000030000010300EFBEADDEDE
:100040000E00A0E1D3F021E30E10A0E10D20A0E10D
:10005000767D00EA000000000000000000000000C3
:100060000E00A0E1D3F021E30E10A0E10D20A0E1ED
:100070006E7D00EA000000000000000000000000AB
:100080000E00A0E1D3F021E30E10A0E10D20A0E1CD
:10009000667D00EA00000000000000000000000093
:1000A0000E00A0E1D3F021E30E10A0E10D20A0E1AD
:1000B0005E7D00EA0000000000000000000000007B
:1000C000FEFFFFEA0000000000000000000000004A
:1000D0000000000000000000000000000000000020
:1000E00003002DE924119FE5000091E510FF2FE1A9
:1000F0000000000000000000000000000000000000
:1001000003002DE908119FE5000091E510FF2FE1A4
:10011000FEFFFFEA0300FDE80E002DE90D10A0E14F
:100120000CD08DE204204EE200304FE1D3F021E309
:1001300004002DE9F05F2DE97000B1E870002DE9B1
:1001400001002DE908002DE9C8409FE5005094E525
:1001500000D085E5817500FAD2F021E3D68100FA5E
:10016000D3F021E3857500FA1000BDE804F06FE1DB
:10017000FFDFFDE80300FDE800804FE100904FE164
:100180001F8008E2120058E30600001AFF5F2DE905
:10019000527C00EBDC8100FA567C00EBFF5FBDE88F
:1001A00009F06FE104F05EE20E002DE90D10A0E110
:1001B0000CD08DE204204EE200304FE1D3F021E379
:1001C00004002DE9F05F2DE97000B1E870002DE921
:1001D00001002DE908002DE938409FE5005094E525
:1001E00000D085E55D7500FAD1F021E3C68100FA03
:1001F000D3F021E3617500FA1000BDE804F06FE16F
:10020000FFDFFDE80000A0E3900F07EE1EFF2FE1E7
:0C0210000400400008004000E4B740007B
:1002200000000FE1C01080E301F021E100100FE1B8
:10023000C01001E2C00051E3F8FFFF1A1EFF2FE1DA
:1002400000F021E11EFF2FE170009FE5000090E526
:1002500000D090E50100BDE838109DE5010011E3F4
:100260002000801300F06FE1FFDFFDE800402DE982
:10027000FF5F2DE900000FE101002DE93C009FE543
:10028000000090E500D080E5749C00EB30009FE515
:1002900028109FE5000090E5000081E51C009FE527
:1002A000000090E500D090E50100BDE838109DE524
:1002B000010011E32000801300F06FE1FFDFFDE893
:1002C000E4B7400010B840002CE0400010000000EF
:1002D0002CE44000F00F00003CE04000F003000080
:1002E0001CF44000F00700000CFC4000F00300008C
:1002F00000000FE1C00080E300F021E100000FE109
:100300001F00C0E31F0080E300F021E12C001FE587
:100310002C101FE5001081E001D0A0E1A8219FE58D
:10032000010050E1002080B5040080B2FBFFFFBA5D
:1003300000000FE11F00C0E3170080E300F021E19F
:1003400070001FE570101FE5001081E001D0A0E1F2
:1003500078219FE5010050E1002080B5040080B2C3
:10036000FBFFFFBA00000FE11F00C0E31B0080E3AA
:1003700000F021E1A4001FE5A4101FE5001081E0BA
:1003800001D0A0E144219FE5010050E1002080B5AB
:10039000040080B2FBFFFFBA00000FE11F00C0E3C2
:1003A000120080E300F021E1E0001FE5E0101FE50E
:1003B000001081E001D0A0E114219FE5010050E18F
:1003C000002080B5040080B2FBFFFFBA00000FE1FF
:1003D0001F00C0E3110080E300F021E104011FE5EC
:1003E00004111FE5001081E001D0A0E1E4209FE5A9
:1003F000010050E1002080B5040080B2FBFFFFBA8D
:100400000080A0E30090A0E300A0A0E300B0A0E380
:1004100000C0A0E300000FE11F00C0E3130080E371
:1004200000F021E154011FE554111FE5001081E0A7
:1004300001D0A0E194209FE5010050E1002080B5AB
:10044000040080B2FBFFFFBA0E0000EB150000EBCA
:100450000000A0E30010A0E30020A0E30030A0E330
:100460000040A0E30050A0E30060A0E30070A0E320
:100470000080A0E30090A0E300A0A0E300B0A0E310
:1004800000C0A0E3FA9B00EA4C009FE54C109FE5FA
:100490004C209FE5020051E1044090340440813437
:1004A000FBFFFF3A1EFF2FE138009FE538109FE564
:1004B0000130A0E10040A0E10020A0E3030054E1EE
:1004C00004208434FCFFFF3A1EFF2FE1EEEEEEEE37
:1004D000BBBBBBBBCCCCCCCCDDDDDDDDF0FC05009B
:1004E00000384000E04D4000104E400078C8400009
:1004F00002B4714649084900095C49008E4402BCB7
:100500007047C04603B47146490840004900095A83
:1005100049008E4403BC7047012051E21EFF2F01A9
:100520003600003A010050E12200009A020011E179
:100530002300000A0E0211E38111A0010830A0037C
:100540000130A013010251E3000051310112A0312A
:100550000332A031FAFFFF3A020151E300005131AA
:100560008110A0318330A031FAFFFF3A0020A0E3D0
:10057000010050E10100402003208221A10050E150
:10058000A1004020A3208221210150E1210140202F
:1005900023218221A10150E1A1014020A321822138
:1005A000000050E32332B0112112A011EFFFFF1A17
:1005B0000200A0E11EFF2FE10100A0030000A01334
:1005C0001EFF2FE1010851E32118A0211020A023D4
:1005D0000020A033010C51E32114A0210820822225
:1005E000100051E32112A02104208222040051E3D3
:1005F00003208282A12082903002A0E11EFF2FE121
:100600001FFF2FE10000A0E1000050E30000E01315
:100610004E9B00EA000051E3F8FFFF0A03402DE97A
:10062000BCFFFFEB0640BDE8920003E0031041E091
:100630001EFF2FE1000051E34300000A01C020E04B
:1006400000106142012051E22700000A0030B0E1B1
:1006500000306042010053E12600009A020011E1DF
:100660002800000A0E0211E38111A0010820A00356
:100670000120A013010251E3030051310112A03106
:100680000222A031FAFFFF3A020151E30300513187
:100690008110A0318220A031FAFFFF3A0000A0E3D0
:1006A000010053E10130432002008021A10053E109
:1006B000A1304320A2008021210153E121314320B8
:1006C00022018021A10153E1A1314320A201802117
:1006D000000053E32222B0112112A011EFFFFF1AF4
:1006E00000005CE3000060421EFF2FE100003CE1DF
:1006F000000060421EFF2FE10000A033CC0FA001DC
:10070000010080031EFF2FE1010851E32118A02101
:100710001020A0230020A033010C51E32114A021BC
:1007200008208222100051E32112A02104208222FD
:10073000040051E303208282A120829000005CE348
:100740003302A0E1000060421EFF2FE11FFF2FE1F6
:100750000000A0E1000050E30201E0C30201A0B3E9
:10076000FA9A00EA000051E3F7FFFF0A03402DE97F
:10077000B1FFFFEB0640BDE8920003E0031041E04B
:100780001EFF2FE17047C0469140031C90409C46DD
:10079000203A9340194352426346D340194370476D
:1007A0001C10A0E3010850E32008A02110104122F2
:1007B000010C50E32004A02108104122100050E356
:1007C0002002A0210410412208208FE20000D2E77D
:1007D000010080E01EFF2FE104030202010101017C
:1007E0000000000000000000000053E3000052037E
:1007F0000700001A000051E30211A0B30000A0B3EB
:10080000020000BA000050030211E0130000E013E0
:10081000AF9A00EA08D04DE200602DE9000051E3F4
:10082000060000BA000053E3110000BAE99A00EB99
:1008300004E09DE508D08DE20C00BDE81EFF2FE12D
:10084000000070E28110C1E0000053E3110000BA23
:10085000E09A00EB04E09DE508D08DE20C00BDE8D5
:10086000000070E28110C1E0002072E28330C3E03A
:100870001EFF2FE1002072E28330C3E0D59A00EB27
:1008800004E09DE508D08DE20C00BDE8000070E2B8
:100890008110C1E01EFF2FE1002072E28330C3E02F
:1008A000CC9A00EB04E09DE508D08DE20C00BDE899
:1008B000002072E28330C3E01EFF2FE1000053E30B
:1008C000000052030400001A000051E3000050032E
:1008D0000010E0130000E0137D9A00EA08D04DE21A
:1008E00000602DE9BB9A00EB04E09DE508D08DE2A5
:1008F0000C00BDE81EFF2FE1F0B54F464646040C44
:10090000A446C0B417043F0C994663467B430504D4
:100910002D0C3E006E431F00140C65436346634379
:10092000ED19340C64199C46A74203D980235B025D
:100930009846C4444B4643434A433604360C250C80
:1009400024046544A4199918491920000CBC904648
:100950009946F0BC04BC1047094B42081A40821A61
:100960001000084B920818401340C01803091818CB
:10097000054B1840030218180304C018000E7047F6
:1009800055555555333333330F0F0F0FF0B54D46D3
:10099000564644465F46F0B4924683B004000D00CC
:1009A00099468B422FD82CD04946504626F0DAFC87
:1009B00029000600200026F0D5FC331A9846203B7B
:1009C0009B4600D576E053465A4693401F00534657
:1009D000424693401E00AF422BD828D05B46A41B52
:1009E000BD41002B00DA7BE000220023009201933E
:1009F00001235A46934001930123424693400093BA
:100A00001BE08242D0D900220023009201930C9B6C
:100A1000002B01D01C605D600098019903B03CBCC4
:100A200090469946A246AB46F0BC04BC1047A34290
:100A3000D4D900220023009201934346002BE6D034
:100A4000FB0772081A4346467B080EE0AB4201D111
:100A5000A2420CD8A41A9D41012024196D41002105
:100A6000013E24184D41002E06D0AB42EED9013E86
:100A700024196D41002EF8D15B46009801990019A8
:100A80006941002B22DB2B005A46D3402A00444602
:100A9000E2401C005B461500002B2CDB26009E402C
:100AA000330026004746BE403200801A994100902C
:100AB0000191ACE7424620239B1A5246DA40414658
:100AC00013004A468A4017001F4380E7424620230E
:100AD0009B1A2A0046469A402300F3401343D5E769
:100AE0004246202300219B1A0022009101920122FC
:100AF000DA40019280E74246202326009B1ADE401E
:100B00002F00B446974066463B003343C9E7C046D2
:100B100010402DE9000051E30200001A1FFFFFEB17
:100B2000200080E2010000EA0100A0E11BFFFFEBD2
:100B30001040BDE81EFF2FE102780B78002A03D099
:100B4000013001319A42F7D0D01A70470023C25CBD
:100B50000133002AFBD1581E70470000021121E228
:100B6000000000EA023123E230402DE98140A0E19B
:100B70008350A0E1050034E10200300100C094116F
:100B800002C09511C4CAF011C5CAF0118C00000A48
:100B9000A44AA0E1A55A74E0005065B2060000DA4C
:100BA000054084E0022020E0033021E0000022E044
:100BB000011023E0022020E0033021E0360055E35D
:100BC0003040BD881EFF2F81020111E30116A0E114
:100BD00001C6A0E321168CE10100000A000070E2CA
:100BE0000010E1E2020113E30336A0E123368CE1B9
:100BF0000100000A002072E20030E3E2050034E167
:100C00006900000A014044E220E075E2050000BAF4
:100C100012CEA0E1320590E00010A1E2130E90E0A8
:100C20005315B1E0060000EA205045E220E08EE2D4
:100C3000010052E313CEA0E102C08C23530590E0E3
:100C4000C31FB1E0025101E20200005A00C07CE281
:100C50000000F0E20010E1E2010651E30F00003A6B
:100C6000020651E30600003AA110B0E16000B0E1D5
:100C70006CC0A0E1014084E2842AA0E1010572E396
:100C80006B00002A02015CE3A0C0B0010000B0E2EA
:100C9000041AA1E0051081E13040BDE81EFF2FE1FC
:100CA0008CC0B0E10000B0E00110A1E0010611E34A
:100CB000014044E2F2FFFF1A000031E31430A013B8
:100CC0003430A0030010A0010000A0030120A0E127
:100CD000010852E32228A02110304322010C52E3E4
:100CE0002224A02108304322100052E32222A02116
:100CF00004304322040052E302304322A230433046
:100D0000A23143E0202053E2070000AA0C2092E227
:100D1000040000DA14C082E20C2062E2110CA0E1AF
:100D20003112A0E1040000EA142082E220C062D265
:100D30001112A0E1301C81D11002A0D1034054E077
:100D4000041A81A0051081A13040BDA81EFF2FA16B
:100D50000440E0E11F4054E20F0000AA0C4094E27E
:100D6000060000CA144084E2202064E23004A0E1BE
:100D7000110280E1311485E13040BDE81EFF2FE112
:100D80000C4064E2202064E23002A0E1110480E122
:100D90000510A0E13040BDE81EFF2FE13104A0E1C5
:100DA0000510A0E13040BDE81EFF2FE1000034E354
:100DB000013623E20116210201408402015045124E
:100DC0008FFFFFEAC4CAF0E1C5CAF0111D00000A96
:100DD000050034E1020030010400000A00C094E183
:100DE0000310A0010200A0013040BDE81EFF2FE16A
:100DF000030031E10010A0130000A0133040BD1823
:100E00001EFF2F11A4CAB0E10400001A8000B0E157
:100E10000110B1E0021181233040BDE81EFF2FE137
:100E2000014594E2011681323040BD381EFF2F315A
:100E3000025101E27F1485E30F1681E30000A0E375
:100E40003040BDE81EFF2FE1C4CAF0E10310A0113D
:100E50000200A011C5CAF0010130A0110020A011AC
:100E6000014690E1035692010300310102178113FC
:100E70003040BDE81EFF2FE1000030E30010A0036A
:100E80001EFF2F0130402DE9014BA0E3324084E2E8
:100E90000050A0E30010A0E386FFFFEA000030E36B
:100EA0000010A0031EFF2F0130402DE9014BA0E3ED
:100EB000324084E2025110E2000060420010A0E3E0
:100EC0007CFFFFEA8020B0E1C211A0E16110A0E147
:100ED000020EA0E1FF341212FF0433130E1321128D
:100EE0001EFF2F11000032E3FF0433131EFF2F01FA
:100EF00030402DE90E4DA0E3025101E20211C1E3A1
:100F00006CFFFFEA012090E11EFF2F0130402DE928
:100F10000050A0E3060000EA012090E11EFF2F012F
:100F200030402DE9025111E20100005A000070E248
:100F30000010E1E2014BA0E3324084E221CBB0E1BA
:100F400044FFFF0A0320A0E3ACC1B0E103208212FA
:100F5000ACC1B0E103208212AC2182E0203062E219
:100F600010C3A0E13002A0E1110380E13112A0E141
:100F7000024084E037FFFFEA70402DE9FFC0A0E3A4
:100F800007CC8CE3214A1CE0235A1C100C003411BE
:100F90000C0035117500000B054084E0036021E072
:100FA0008C1AC1E18C3AC3E1015690E103569211CB
:100FB000011681E3013683E31D00000A90C28EE032
:100FC0000050A0E391E2A5E0022106E290E3A5E053
:100FD0000060A0E39153A6E000003CE301E08E1323
:100FE000FF4044E2020C56E3034CC4E20200002A34
:100FF0008EE0B0E10550B5E00660A6E0861582E11E
:10100000A51A81E18505A0E1AE0A80E18EE5A0E1A7
:10101000FDC054E2070C5C831100008A02015EE30C
:10102000A0E0B0010000B0E2041AA1E07040BDE809
:101030001EFF2FE1026106E2011086E1020080E15D
:10104000031021E0AC4054E00C5074C0041A81C17C
:101050007040BDC81EFF2FC1011681E300E0A0E370
:10106000014054E25D0000CA360074E30000A0D3E2
:10107000021101D27040BDD81EFF2FD1004064E2A2
:10108000204054E21A0000AA0C4094E20C0000CA6E
:10109000144084E2205064E21035A0E13004A0E165
:1010A000110580E1022101E20211C1E3A30F90E0EA
:1010B0003114A2E083E09EE1A30FC0017040BDE8BF
:1010C0001EFF2FE10C4064E2205064E21034A0E1E6
:1010D0003005A0E1110480E1021101E2A30F90E0CC
:1010E0000010A1E283E09EE1A30FC0017040BDE8C3
:1010F0001EFF2FE1205064E210E58EE13034A0E1C4
:10110000113583E13104A0E1021101E23104C0E1B3
:10111000A30F80E083E09EE1A30FC0017040BDE813
:101120001EFF2FE1000034E30800001A026101E213
:101130008000B0E10110A1E0010611E3014044028A
:10114000FAFFFF0A061081E1000035E31EFF2F11B0
:10115000026103E28220B0E10330A3E0010613E361
:1011600001504502FAFFFF0A063083E11EFF2FE11E
:101170000C0034E1235A0CE00C0035110700000A82
:10118000816090E183609211E5FFFF1A031021E076
:10119000021101E20000A0E37040BDE81EFF2FE154
:1011A000816090E10200A0010310A0018360921110
:1011B0001000000A0C0034E10100001A016690E101
:1011C0000C00001A0C0035E10300001A036692E1DE
:1011D0000200A0110310A0110600001A031021E064
:1011E000021101E27F1481E30F1681E30000A0E306
:1011F0007040BDE81EFF2FE17F1481E33E1781E3BD
:101200007040BDE81EFF2FE170402DE9FFC0A0E354
:1012100007CC8CE3214A1CE0235A1C100C0034112B
:101220000C0035115E00000B054044E003E021E0B6
:10123000035692E10116A0E14C00000A0336A0E13A
:101240000152A0E3233285E1223C83E10224A0E1A4
:10125000215285E1205C85E10064A0E102110EE2EB
:10126000030055E102005601FD40A4E2034C84E274
:101270000100002AA330B0E16220A0E1026056E044
:101280000350C5E0A330B0E16220A0E10106A0E375
:1012900002C7A0E302E056E003E0D5E0026046208A
:1012A0000E50A0210C008021A330B0E16220A0E10B
:1012B00002E056E003E0D5E0026046200E50A02197
:1012C000AC008021A330B0E16220A0E102E056E052
:1012D00003E0D5E0026046200E50A0212C018021C1
:1012E000A330B0E16220A0E102E056E003E0D5E0E7
:1012F000026046200E50A021AC01802106E095E15D
:101300000D00000A0552A0E1265E85E10662A0E11B
:101310008331A0E1A23E83E18221A0E12CC2B0E1B1
:10132000DBFFFF1A010611E30600001A001081E13D
:101330000000A0E302C1A0E3D5FFFFEA010611E32C
:10134000001081010000A003FDC054E2070C5C8383
:1013500043FFFF8A03C055E002C05600A0C0B001A1
:101360000000B0E2041AA1E07040BDE81EFF2FE1CA
:1013700002E10EE221168EE1AC4094E00C5074C004
:10138000041A81C17040BDC81EFF2FC1011681E340
:1013900000E0A0E3014054E231FFFFEA06E085E10E
:1013A0002FFFFFEA235A0CE00C0034E10C0035015A
:1013B00090FFFF0A0C0034E10600001A014690E19C
:1013C0008CFFFF1A0C0035E183FFFF1A0200A0E139
:1013D0000310A0E187FFFFEA0C0035E10400001ACA
:1013E000035692E168FFFF0A0200A0E10310A0E1AA
:1013F00080FFFFEA816090E18360921148FFFF1A4D
:10140000814090E174FFFF1A835092E15EFFFF1A62
:1014100078FFFFEA00C0E0E3020000EA01C0A0E3B9
:10142000000000EA01C0A0E304C02DE581C0A0E1F6
:10143000CCCAF0E183C0A0E1CCCAF0110E00000AD2
:1014400004D08DE281C090E183C09201030031118C
:10145000020030010000A0031EFF2F01000070E316
:10146000030031E10300515102005001C30FA021DC
:10147000C30FE031010080E31EFF2FE181C0A0E136
:10148000CCCAF0E10100001A01C690E10400001A84
:1014900083C0A0E1CCCAF0E1E8FFFF1A03C692E1E5
:1014A000E6FFFF0A04009DE41EFF2FE100C0A0E15B
:1014B0000200A0E10C20A0E101C0A0E10310A0E126
:1014C0000C30A0E1FFFFFFEA01402DE9D4FFFFEB64
:1014D000000050E3000070430140BDE81EFF2FE113
:1014E00008E02DE5F7FFFFEB0100A0030000A013CB
:1014F00008E09DE41EFF2FE108E02DE5F1FFFFEB82
:101500000100A0330000A02308E09DE41EFF2FE1AE
:1015100008E02DE5EBFFFFEB0100A0930000A083A6
:1015200008E09DE41EFF2FE108E02DE5DEFFFFEB64
:101530000100A0930000A08308E09DE41EFF2FE1BE
:1015400008E02DE5D8FFFFEB0100A0330000A02349
:1015500008E09DE41EFF2FE181C0A0E1CCCAF0E1CC
:101560000100001A01C690E10600001A83C0A0E144
:10157000CCCAF0E10100001A03C692E10100001A92
:101580000000A0E31EFF2FE10100A0E31EFF2FE1FA
:101590008120A0E1022692E20C00002A0900005AF4
:1015A0003E3EE0E3C22A53E00A00009A8135A0E102
:1015B000023183E3A03A83E1020111E33302A0E1A7
:1015C000000060121EFF2FE10000A0E31EFF2FE1CC
:1015D000010690E10200001A020111E20201E0039B
:1015E0001EFF2FE10000A0E31EFF2FE1004870471F
:1015F000C02709000120704737B5082405002200E4
:101600000021684623F08DFA6A46054B28001380B6
:10161000044B69465380220023F061FA37BDC0466F
:1016200000C0FFFFFFCFFFFF0121164B70B51972FD
:1016300059720021D975997599611962190012487A
:10164000124ADA31088012495881DA8198811A8267
:10165000DC331A8048808A800820282201F038FD77
:1016600025F0DEFE0B4D0C4C2B00220001000B4838
:1016700022F048FE2900200022F044FE084822F013
:1016800041FE70BD404E400066E6FFFF204E000068
:10169000104E40007F750500907505009B75050094
:1016A000DB8F05007047704710B501000400044847
:1016B0001FF097FBFA208000604325F0B5FE10BDB7
:1016C000A67505000300F0B528264189DA33198094
:1016D000C28904005A800378164D7343EB1885B015
:1016E0009A80598025F09CFE2278010033005343F4
:1016F000EB189888104F02905B8810480193009275
:101700003B000F4A22F0FEFD22780D483100514384
:1017100069184B8889880091390022F0F3FD094847
:1017200022F0F0FD32002900082001F0D1FC05B0C4
:10173000F0BDC046104E40006A7605009B7505005E
:10174000AD750500DB8F05001622F0B52825334E58
:1017500089B002ABD21831000820158001F0A0FC3E
:101760003700041E58D12E482A003100D83023F00B
:10177000B6F925F055FEBB882A4E02937B882A4D88
:1017800001003200019300942B00284822F0BAFD9A
:10179000BA887B88290000923000220022F0B2FD36
:1017A000234E300022F0AEFD7B88204A1C4C05926F
:1017B000002B00D0A381BB88002B00D02382A389FB
:1017C000002B00D001236372637A002B04D1E375F0
:1017D000A375A36123620FE041230527E37523333B
:1017E000A37522F003FCA37D5F433F18A761E07D52
:1017F00002F0FAFB3F18276225F012FE0D4C0100A3
:101800002B002200059822F07DFD2900200022F007
:1018100079FD300022F076FD09B0F0BD104E400099
:10182000404E4000AD7505007B7605009B750500B8
:10183000DB8F050090750500842210B5064C520020
:101840000021200023F06DF92100012002F0E8FBC7
:10185000FFF77AFF10BDC046404E400070B5194CEE
:10186000DC22210018481FF0BCFA0225FFF7E4FF34
:10187000102316480370457000F03AFB11231448FA
:101880000370457000F034FB12231248037045705A
:1018900000F02EFB81221049920010481FF0A1FA9F
:1018A00025F0BEFD0E4D23002A0001000D4822F058
:1018B00029FD2100280022F025FD0B4822F022FD01
:1018C00070BDC0466076050027B50500544F400046
:1018D0004C4F40005C4F40009E760500D7750500D8
:1018E000907505009B750500DB8F050010B50400A1
:1018F0000D481FF076FA002C13D0217A0B4863892B
:10190000627A1FF06EFAE068011E0BD0618900292F
:1019100008D020F07BFA010005481FF062FA002190
:1019200000E00449080010BDDE7505006780050071
:1019300087800500FFFF0000F7B504000D000328B5
:101940003BD018D8012861D825F06AFD314D324CC2
:101950002B0022000100314822F0D4FC2900200095
:1019600022F0D0FC2E4822F0CDFC0520FFF79CFE93
:10197000FFF75AFE4DE01A2826D016D80A2848D17B
:1019800025F04EFD234D274C2B002200010023485B
:1019900022F0B8FC2900200022F0B4FC204822F0FC
:1019A000B1FC0320FFF780FE33E01C280CD01F2879
:1019B0002FD10800FFF79AFF2BE0FFF74FFF290018
:1019C000162001F0F3FF24E02E7A6F89EB89297845
:1019D0003200009314483B001FF003FA134B1A78AF
:1019E000B24208D01E701248002E02D000F0C2FA97
:1019F00001E000F0A3FA0F4B1A88BA4200D01F8012
:101A00001C2C06D12800FFF75DFE02E00A481FF0FB
:101A1000E8F9F7BD74750500FD7505009B750500B7
:101A2000DB8F0500157605002D760500384E400049
:101A3000544F4000484F40004776050010B5054A16
:101A4000054906481FF0CDF900F012FE01F072FDC5
:101A5000002010BD2E0200008C760500D775050011
:101A60007047000010B50A490A481FF0BAF91DF086
:101A7000EFFDFFF7F5FF084A084909481FF0B1F9E3
:101A8000084C200001F008F8200000F0E3FF10BD32
:101A9000047905000D790500137905001F7905000B
:101AA000287905005039400010B5012488B0164946
:101AB00016481FF096F925F065FC15481FF091F9BE
:101AC0001EF082F813481FF08CF907AA1249134838
:101AD00007941DF081FF12481FF083F9114B00227B
:101AE0000493A0235B0003930F4B10490293002340
:101AF0000594009201930E4820231BF01BFF25F054
:101B000039FC08B010BDC046997905004879050038
:101B100050790500617905000300220E79790500EE
:101B20007D790500651A0300E04F400091790500BA
:101B3000684F4000F8B504001BF0D6FF0300733374
:101B40001A784168230015481FF04BF91CF062FF1A
:101B500000201AF0B1FF1BF0C7FF05691BF0C4FF9E
:101B60004469A4002C196D4600260327AC420BD90A
:101B70003E4203D129000A481FF033F902CD09483B
:101B80001FF02FF90136F1E707481FF02AF9074B3C
:101B9000074AD521074822F09FFDC046A3790500DA
:101BA000C9790500D1790500DB8F05004AA9050038
:101BB000FA790500D779050010B5044904481AF0F0
:101BC00041FD044904481AF03DFD10BD78C84000AD
:101BD000104E4000E04D400000384000684670471D
:101BE00010B502481FF0FDF810BDC046077A050089
:101BF000034810B54368002B01D025F01FFC10BD31
:101C0000E0544000044810B54368002B03D0012184
:101C1000494225F045FB10BDE0544000044B1A88B2
:101C200014235843034B082A00D0034BC0187047B5
:101C30008021000000780500A876050073B5050036
:101C4000062805D1254B994202D9254B0135C918E3
:101C5000244B1C88142328005843234B082C00D005
:101C6000224BC018C4688B18A34233D88368541E13
:101C7000C9186418194A1E4B0D0B240B2D0324039D
:101C800013439D4203D81B481FF0ABF822E000220B
:101C900001A919481DF030FD06000095009B17486A
:101CA0009C4210D300F0D8FCFFF7ACFF6A46144901
:101CB00030001DF077FEFFF79BFF8022009B520152
:101CC0009B180093EAE700F0C7FC30001DF0C8FD48
:101CD000002001E00120404276BDC046FF0F000019
:101CE00000F0FFFF8021000000780500A8760500C5
:101CF000F0FC05002D7A05004F7A050088BE4000F3
:101D00000F00240EF0B585B006000C0001921D00F6
:101D1000062807D10B68234A934203D9224A013689
:101D20009B180B60214B1A88142330005843204B1A
:101D3000082A00D01F4BC018002C2ED0019B002B6E
:101D40002BD02368C1685A198A4226D886689E1902
:101D5000194B9E4203D819481FF043F81DE000229A
:101D600003A917481DF0C8FC0700164800F074FCD2
:101D7000FFF748FF33002A00019938001DF0E6FD07
:101D8000FFF736FF0F4800F067FC38001DF068FDD4
:101D9000236800205D19256001E00120404205B064
:101DA000F0BDC046FF0F000000F0FFFF80210000E3
:101DB00000780500A8760500F0FC0500557A0500BE
:101DC0004F7A050088BE4000F0B585B006000C00D3
:101DD00000921D00062807D10B68204A934203D9C0
:101DE0001F4A01369B180B601E4B1A8814233000C3
:101DF00058431D4B082A00D01C4BC018002C29D07A
:101E0000009B002B26D02368C1685A198A4221D82A
:101E1000866800229B1903A9154801931DF06CFCEC
:101E20000700144E300000F017FCFFF7EBFE019B9B
:101E30002A00009938001DF05DFDFFF7D9FE300043
:101E400000F00AFC38001DF00BFD236800205D192E
:101E5000256001E00120404205B0F0BDFF0F000009
:101E600000F0FFFF8021000000780500A876050043
:101E70004F7A050088BE4000032307B5002269465B
:101E8000084801931DF038FC431C05D1C7220649C0
:101E900006481EF0A6FFFEE701AA05491DF082FDD7
:101EA00000200EBD4F7A05007F7A0500777A050085
:101EB0001100240E022307B5002269460848019349
:101EC0001DF01AFC431C05D1D422064906481EF019
:101ED00088FFFEE701AA05491DF064FD00200EBD44
:101EE0004F7A0500977A0500777A05001100240ED5
:101EF00007B50200407807280BD8FEF7F9FA0D0A5B
:101F0000080A0A0F0406032309E0042307E001235B
:101F100005E0012040420CE0022300E0002312789B
:101F20001B02D318034901AA034801931DF054FD75
:101F300000200EBD0000AA0CBB7A050007B503788F
:101F400001AA0133FF330749074801931DF044FDFF
:101F5000002805D0DE22054905481EF042FFFEE7B5
:101F60000EBDC0460400AA0CBB7A0500AC7A050081
:101F7000777A050007B5037801AA07490748019356
:101F80001DF02AFD002805D0DE22054905481EF077
:101F900028FFFEE70EBDC0460400AA0CBB7A050070
:101FA000AC7A0500777A0500F0B591B0394807ACF6
:101FB0001DF032FA3849002220001BF071FA011E90
:101FC00004D036481EF00DFF0C205FE00A200021EF
:101FD000334B344A344D1A61344A9860D960280032
:101FE0001A605C6025F0D8F9002801D101236B60EC
:101FF0002F4B012504939623002600279B00039373
:102000002C4B0595029300960197102300222A4934
:102010002A481BF08FFC2A4B05950493E1239B0073
:102020000393284B0096019702930022122326491E
:1020300026481BF07FFC264B0595049396239B00B6
:102040000393244B009601970293154A10232249CB
:1020500016481BF06FFC124D061E07D1012252429A
:10206000D31720001BF08CFA060003E001001B4888
:102070001EF0B7FE002720006F601BF037FA380013
:10208000BE4204D016481EF0ACFE0120404211B002
:10209000F0BDC046E5200300C07A0500CE7A0500F9
:1020A0000055400020784000F4544000185540008E
:1020B0008D240300C4634000F27A050030774000AD
:1020C00019230300B4554000047B0500306D400027
:1020D0007DF50400A86D4000117B0500207B050004
:1020E000437B0500F0B5040085B0FF20002C00D133
:1020F00082E06379042B08D1A27A132A05D8033B26
:1021000093408C22120313426ED13C4B3C4E1A88F2
:102110001D003C4F232A1AD925F0A8F9019025F07B
:102120002DF9029030001EF0EEFF2B880390013B4A
:102130002B80019B002B01D125F002F9029B002B83
:1021400001D125F0B7F803981AF0C0F900E01D009E
:102150000197E379A179207A1B020B4300041A004E
:102160000300607A1343000618430F301AF070F929
:102170000023037143718371C37163790700037294
:10218000E379A079227A1B02034312041900130099
:10219000627A0B4312061A43110AB972110CF972D2
:1021A000110E3973380021007A720A310D3022F095
:1021B00096FC25F05BF9040025F0E0F83900029068
:1021C00030001EF095FF2B8801332B80002C01D1AD
:1021D00025F0B6F8029B002B01D125F06BF8019891
:1021E0001BF0BAF9002007E0074B084E1A881D00C3
:1021F000074F0F2AACD98FE705B0F0BD246D400022
:10220000286D400008774000F0544000E85440003A
:1022100090554000034810B54368002B01D025F0CD
:102220000DF910BDF454400070B506003348436802
:10223000002B03D00121494225F032F8002E04D1B1
:102240002F4930481EF0CDFD4FE0822040001AF0AB
:10225000FFF80500B289B1680A3022F040FCB3896A
:102260000322190AE9710021AB711B0E29726B72EE
:10227000F389F318133393431A788A4202D0022A5F
:1022800009D018E02B7BB189033399420BD101238C
:1022900014006B7113E06B7B297B1B020B43B0892D
:1022A0000433984204D0164917481EF09AFD05E001
:1022B0006A71002403E015481EF093FD144C3000B1
:1022C0001FF01AFC002C0AD128001DF0B1F8041EE2
:1022D00006D002000A490F481EF083FD00E00C4CB6
:1022E00028001AF0F3F8002C04D0FFF793FF012028
:1022F000404202E0FFF78EFF200070BDF454400022
:10230000107C05005B7B0500707B0500947B05005D
:10231000FFFF0000A87B0500F0B5574D85B02800F1
:102320001EF0E2FE554C0022554920001BF0B8F883
:1023300000220327534B03941A8001932B68002B30
:1023400000D193E025F092F8029025F017F80600EE
:1023500028001EF0D8FE019B04001B88002B02D031
:10236000019A013B1380029B002B01D124F0E8FF6E
:10237000002E01D124F09EFF002663792179A079F7
:102380001B020B4300041A000300E079134300060C
:10239000184329D1237A042B06D1637B0E3B012BF2
:1023A00002D806F0BFFF03E00021012006F0A8FFDD
:1023B000030A6371030C2071A371000E6279E0714E
:1023C000A3792079120202431B0413431A00E37914
:1023D0001B061343D1D1002E04D12B481EF001FD62
:1023E0000136CAE70126C8E7A37A667AE27A1B02B9
:1023F00033431204190013000B432100227B0D31DB
:1024000012061A4308301FF0D6FB63792279217A2D
:102410001B02A679E079134304290CD11900330477
:102420000B431A0003061343DA899B180122133366
:10243000BB431A7008E032041A4300061043C289F5
:1024400080181330B843077063792179A0791B0293
:102450000B4300041A000300E079134300061843FD
:1024600005F0A4FE20001AF031F867E70A220023E5
:1024700003981BF085F861E7286D4000087740005D
:10248000C47B0500246D4000D17B0500F0B5574D9D
:1024900085B028001EF028FE554C0022554920002A
:1024A0001AF0FEFF00220327534B03941A80019376
:1024B0002B68002B00D193E024F0D8FF029024F089
:1024C0005DFF060028001EF01EFE019B04001B8815
:1024D000002B02D0019A013B1380029B002B01D1FB
:1024E00024F02EFF002E01D124F0E4FE00266379B3
:1024F0002179A0791B020B4300041A000300E07944
:1025000013430006184329D1237A042B06D1637B99
:102510000E3B012B02D806F005FF03E0002101204D
:1025200006F0EEFE030A6371030C2071A371000E26
:102530006279E071A3792079120202431B041343EC
:102540001A00E3791B061343D1D1002E04D12B4886
:102550001EF047FC0136CAE70126C8E7A37A667A6F
:10256000E27A1B0233431204190013000B432100CB
:10257000227B0D3112061A4308301FF01CFB6379D1
:102580002279217A1B02A679E079134304290CD120
:10259000190033040B431A0003061343DA899B180E
:1025A00001221333BB431A7008E032041A430006B9
:1025B0001043C28980181330B843077063792179BA
:1025C000A0791B020B4300041A000300E0791343B7
:1025D0000006184306F08CFB200019F077FF67E730
:1025E0000A22002303981AF0CBFF61E7E854400069
:1025F00090554000EC7B0500F0544000D17B050075
:1026000010B5024806F072FC002010BD6C39400085
:102610007047704710B509780120090609161EF0A9
:10262000F9FB002010BD000013B50723040001AA28
:102630000549064801931DF0CFF9221D04490548BC
:102640001DF0CAF9002016BD0E00220E7979050092
:102650000200330E207C050010B500220249034819
:102660001DF0BAF910BDC0460300330E207C0500F2
:1026700000207047002210B511000320FFF7FCFB7B
:1026800010BD002210B511000320FFF713FC10BD90
:10269000F0B5032087B00C0015001E00FFF7BEFA4E
:1026A000C3686519AB4202D20120404231E0009478
:1026B000009B9D4224D01C05240D0DD102AF019337
:1026C0003A00102301A90320FFF77EFB3B5DFF2B9F
:1026D00018D10134102CF9D18022009B52011C0525
:1026E000240DEB1A141B9C4200D91C00230032005D
:1026F00069460320FFF706FB0028D5D13619D7E736
:10270000002006E08022009952010320FFF796FA8C
:10271000E2E707B0F0BD0120704710B51CF020FEC5
:1027200010BD000030402DE903C0A0E101E0A0E3AE
:102730000040A0E30050A0E31CD04DE20C208DE54A
:1027400028209DE52C30DDE52221A0E108208DE543
:1027500010E08DE5F040CDE10C20A0E1339300EBDB
:102760001CD08DE23080BDE840309FE500C093E58D
:102770000320A0E102001CE30300000A01301CE278
:102780000110A0030700001A010000EA0210A0E3F4
:102790000130A0E301108CE1003080E5001082E5FB
:1027A0000000A0E31EFF2FE11500E0E31EFF2FE174
:1027B000A877400070402DE90150A0E10040A0E161
:1027C000B89200EB0520A0E10410A0E1EE9200EB2E
:1027D0007080BDE80030A0E337402DE90050A0E153
:1027E00008408DE2043024E5AE9200EB0420A0E125
:1027F0000510A0E1009300EB04009DE50CD08DE2F4
:102800003080BDE8000050E31200000A010071E3CF
:1028100010402DE90020E0030030E00300009005A7
:102820000600000A004090E50100A0E10010A0E3CE
:10283000E59200EB0020A0E10130A0E10400A0E15E
:10284000EA9200EB14309FE5030050E100005013C2
:102850000000A0031080BDE81500E0E31EFF2FE19B
:1028600085030000000050E30700000A10402DE936
:10287000000090E59B9200EB14209FE5020050E1E0
:10288000000050130000A0031080BDE81500E0E335
:102890001EFF2FE18503000070402DE9004050E24B
:1028A0001300000A0460A0E10E50A0E1080000BA85
:1028B000020184E3909200EB3C309FE50040A0E1F0
:1028C0000010A0E10520A0E1000093E5EB9200EBF1
:1028D000010000EA889200EB0040A0E1000054E310
:1028E0000300000A0620A0E10010A0E30400A0E11C
:1028F0004A9200EB0400A0E17080BDE810BB4000EC
:1029000070402DE9004050E20C00000A090000BAB6
:10291000020184E30E50A0E1779200EB24309FE5A2
:102920000040A0E10010A0E10520A0E1000093E537
:10293000D29200EB010000EA7040BDE86E9200EA1E
:102940000400A0E17080BDE810BB4000003051E2FF
:10295000000000AA919200EA70402DE9021183E381
:102960000E40A0E18D9200EB0050A0E114309FE5F5
:102970000010A0E10420A0E1000093E5BF9200EB6D
:102980000500A0E17080BDE810BB40000C309FE561
:102990000120A0E10010A0E1000093E5B79200EA59
:1029A00010BB4000000050E31EFF2F018C9200EA94
:1029B000000050E30E00000A70402DE90050A0E135
:1029C0002800A0E3CDFFFFEB006050E20A00000A00
:1029D0002C109FE51C9200EB004050E20060850542
:1029E0000100000A0600A0E1EDFFFFEB0400A0E1FA
:1029F0007080BDE81500E0E31EFF2FE10B00E0E36F
:102A00007080BDE8307C0500000050E31EFF2F0100
:102A100010402DE90040A0E1000090E57C9200EB21
:102A2000000094E5DEFFFFEB0030A0E3003084E51A
:102A30001080BDE83E9200EA10402DE9C01FA0E1E1
:102A4000619200EB1040BDE8369200EA6D9200EA18
:102A50007D9200EA70B504000C4D0D48290021F06C
:102A600051FC21F079FC18F06FFD21F06DFC1CF099
:102A700023FB18F0E9FDFFF7B3F82900054821F022
:102A800041FC03CCFEF7DAFF002070BD497C050055
:102A900048790500597C050070477047802210B5C1
:102AA000520100210520FFF7C9F803005A1E934187
:102AB00009205B42184010BD802213B50021094B4C
:102AC0005201072000910193FFF7B8F80423040096
:102AD00001AA69460720FFF715F92043431E9841D4
:102AE000400016BDA801A5A5042337B50093002317
:102AF00004000380134B009A9A4217D801AD0423B7
:102B00002A0069460520FFF75FF9002817D1295CE4
:102B100000290DD0002301200A001A41024202D1EF
:102B20002288013222800133082BF5D1002007E0F2
:102B300023880130083323800428E8D1DAE707200E
:102B40003EBDC046FF0F00004368826810B5040018
:102B5000934211D2011D22000220082320560C327C
:102B6000FFF732F90723002807D16368227B083B6F
:102B700063600300FF2A00D10423180010BD10B5C4
:102B800004002000FFF7E0FF237B0100012B03D1AD
:102B9000E28923889A4209D06268238A0832D318CE
:102BA000627B9B1863600029EBD000E0002010BD21
:102BB000072370B586B001ACA370033B636080232C
:102BC00000212E4D2E4E5B01082204A82E8021806C
:102BD000A36021F0A6FF2000FFF7B6FF002811D167
:102BE000237B012B06D12B88228A083B9B1A627B10
:102BF0009B1A2B806268238A0832D318627B9B1849
:102C00006360E8E72B88B34201D900232B80636817
:102C1000B34200D86B600B2280230021194D5B0169
:102C2000A27004A8033A2B8021806160A36021F088
:102C300078FF2000FFF788FF002811D1237B012BAC
:102C400006D12B88228A083B9B1A627B9B1A2B8019
:102C50006268238A0832D318627B9B186360E8E7B6
:102C600080232A885B019A4201D900222A80626867
:102C70009A4200D86A60002006B070BDAC77400070
:102C8000FC0F0000B47740000123F0B504000220DF
:102C900085B05B42039308560D00072804D1FFF767
:102CA0000BFF04236B6004E0802200215201FEF739
:102CB000C5FF0223E356072B01D1033B00E00023AD
:102CC00063602000FFF740FF00285FD1237B019362
:102CD000012B5BD12B000C3300932300009A0C33A3
:102CE00003CB03C26B680220039303232E1D2B73B7
:102CF00028560823009A3100FFF704F80006000E5A
:102D000001D0082050E06368208A0833636021F016
:102D100036FA071E0FD124F083FB244C0100220059
:102D2000234821F0EFFA200021F0ECFA214821F0AD
:102D3000E9FA032038E00220238A211D3A002056B8
:102D4000FFF742F8022031002B8A3A002856FEF79E
:102D5000D9FF06003800360624F08EFA360ED0D1A0
:102D60006B4602201B79009A2B732856019B03A9FE
:102D7000FEF7C8FF0006000EC3D16268637BD3185C
:102D800063606A686B7BD3186B6006E06268238AB5
:102D90000832D318627B9B1863602000FFF7D4FED3
:102DA000002800D18DE7002005B0F0BD687C05004B
:102DB0009B750500DB8F05000123F0B55B4291B0E8
:102DC00004000391019204930593002A04D124F096
:102DD00027FB664C01001EE0039B002B0FD124F063
:102DE0001FFB634C01002200624821F08BFA200097
:102DF00021F088FA604821F085FA0327B3E0827851
:102E000013061B16072A12D05C4D0B2B10D024F092
:102E100007FB01005A4C2200564821F073FA2000AB
:102E200021F070FA544821F06DFA08279BE0554DC7
:102E3000019B2A8808339A4204D224F0F1FA524CBA
:102E40000100E8E76B68019A08339B188022520161
:102E5000944693421CD906AF3B00220043CA43C3A9
:102E600003CA03C30C230BAE0021B37063460822D0
:102E70000EA80D9331800C9121F053FE31003800E3
:102E8000FFF702FF39003000FFF7FEFEFFF790FE6C
:102E90002000FFF774FE002808D163680493238A9A
:102EA000627B0833D3181B041B0C02936B680199D7
:102EB00005936360032319400023994203D0042241
:102EC000531A1B061B0E637323880322E3816B4690
:102ED0009B88227323820022019903981EF01EF919
:102EE000270060820220261D0C37205608233A0056
:102EF0003100FEF707FF0006000E96D10220019B6D
:102F00002056039A3100FEF7FDFE0006000E8CD11C
:102F10000126022026733A002056330005A9FEF749
:102F2000F1FE07063F0E00D07FE72B88627B083B4F
:102F30009B1A019A9B1A2B80637B6268D3186B6083
:102F4000049B01330FD002200BAA2056330004A9A2
:102F50001770FEF7D7FE0006000E00D065E72B883D
:102F6000029AD3182B80380011B0F0BD7A7C05008E
:102F70008A7C05009B750500DB8F0500B477400057
:102F80009C7C0500AC774000A97C0500002313B5AC
:102F9000020001930400043301A90520FEF714FF89
:102FA00003061B0E0720002B08D122680438110EDF
:102FB000012903D118001202120A226016BD000076
:102FC000F8B505000F001600FFF7D9FD00282ED137
:102FD0002B8A3288934201D3002A00D13380022009
:102FE0006B68291D08336B60285633883A00FEF75A
:102FF000EBFE0406240E0720002C18D13188220095
:1030000038001EF08BF86B8A83420FD024F008FA48
:10301000074C01002200074821F074F9200021F03C
:1030200071F9054821F06EF9002000E02000F8BD9C
:10303000B37C05009B750500DB8F0500072370B589
:1030400086B001ACA370033B029380230D001600F1
:103050005B0120800822002104A8039321F061FD78
:10306000320029002000FFF7ABFF06B070BD072338
:1030700070B586B001ACA370033B029380230D00B2
:1030800016005B0120800822002104A8039321F090
:1030900048FD320029002000FFF78EFE06B070BD0B
:1030A0000B2370B586B001ACA37080230D00160011
:1030B00000215B012080082204A80291039321F0E3
:1030C00030FD320029002000FFF77AFF06B070BD06
:1030D0000B2370B586B001ACA37080230D001600E1
:1030E00000215B012080082204A80291039321F0B3
:1030F00018FD320029002000FFF75EFE06B070BD0B
:1031000010B5010008220420FFF7B1FF10BD000038
:103110007FB56B469D1D082306002A0002A90420E6
:103120002B80FFF78BFF041E08D12A88082A05D1BF
:1031300002A9300021F0D3FC20000EE024F070F949
:10314000074C01002200074821F0DCF8200021F0A4
:10315000D9F8054821F0D6F8072004B070BDC04664
:10316000D47C05009B750500DB8F0500F0B59C261F
:1031700085B0B60002AB019030009F1DDE8020F0CC
:10318000FEFF3A00010005000120FFF757FF041E73
:1031900016D13A88B24204D12900019821F09FFC4F
:1031A0000EE024F03DF9094C01002200084821F00E
:1031B000A9F8200021F0A6F8064821F0A3F807247A
:1031C000280024F059F8200005B0F0BDD47C05009B
:1031D0009B750500DB8F0500022373B501AC2380CE
:1031E0006B469D1D0600220029000320FFF726FFE5
:1031F000002814D12388022B02D12B8833800EE0C3
:1032000024F00EF9064C01002200064821F07AF85D
:10321000200021F077F8044821F074F8072076BDEB
:10322000D47C05009B750500DB8F050037B50400D5
:1032300001A8FFF7ABFE00280DD16B469D1C2800AE
:10324000FFF752FC02000720002A04D110002B884F
:1032500001995B1823603EBD002310B58CB002A914
:1032600004AA01A8019300F0A5F8FB2101401AD19E
:10327000802205205201FEF7E1FC0406FFF71CFC4A
:10328000240E20430006000E0DD1FFF791FC01989B
:10329000002802D1FFF702FC05E004AA02A900F011
:1032A00059F80028F6D00CB010BD10B5002102204E
:1032B00000F07CFB10BD0000014B18787047C04641
:1032C000BC774000014B18707047C046BC77400087
:1032D00010B5054C00222000044920F0E3FE04490B
:1032E000200020F009FF10BDC0774000AB32030082
:1032F00088130000F0B50E2685B06E4405003080BE
:1033000024F08EF80C4C0D4F010023003A0001957B
:1033100000940B4820F0F6FF2B002200210038001B
:1033200020F0F0FF074820F0EDFF022231000620D8
:10333000FFF7CEFE05B0F0BDC67D05009D7D050002
:103340009B750500DB8F050010B50020FFF7D2FF4D
:1033500010BD0000F0B58BB007000E00019224F004
:103360005FF8104D104C2B00220001000F4820F098
:10337000C9FF2900200020F0C5FF0D4820F0C2FF42
:103380000199102204A8039721F0A9FB310006221D
:1033900008A821F0A4FB1A2203A90220FFF767FE68
:1033A0000BB0F0BD067E0500217E05009B75050073
:1033B000DB8F0500F0B50A268DB002ABF6181A2394
:1033C000039233800700029124F02AF8284C294DFB
:1033D00022002B000100284820F094FF2900200043
:1033E00020F090FF254820F08DFF320005A9022033
:1033F000FFF724FE041E15D024F012F83A27204EC1
:1034000001002B003200019400971B4820F07AFF46
:1034100023003A002900300020F074FF174820F004
:1034200071FF11E033881A2B10D1042205A938004E
:1034300021F055FB102206A9039821F050FB06222B
:103440000AA9029821F04BFB20000EE023F0E8FFD0
:103450000C4C01002200084820F054FF200020F00E
:1034600051FF064820F04EFF07200DB0F0BDC046CA
:10347000217E0500EC7D05009B750500DB8F0500B6
:10348000267E0500D47C05000121024A537B0B43B4
:103490005373704710784000F7B51F4C0622200088
:1034A0001E4921F01CFB002322001D4CD15C195544
:1034B0000133062BFAD17222043BA3711333E3715B
:1034C0004F332372023363721033A372073BE372EC
:1034D00062730E3B0F3A2373A273E37323F0A0FFD2
:1034E0001021070020001EF091FC0E4E0E4D3300FF
:1034F0002A00390000900D4820F004FF1021200020
:103500001EF084FC31000200280020F0FBFE084879
:1035100020F0F8FE2000FEBD207840003B7E050034
:1035200010784000F47E0500427E05009B75050082
:10353000DB8F050010B5FFF7B0FA00F057FE10BDA5
:10354000F0B51B4C85B022781A4D002A05D11A49D6
:10355000280020F0A7FD012323700E246C440121D4
:10356000200002F065FEFA20238840015843FF2125
:1035700023F0F4FEFA23DB00C018208023F050FF74
:103580000E4F0F4E23880100009332003B000D4880
:1035900020F0B8FE22883900300020F0B3FE0A483F
:1035A00020F0B0FE2188280020F0A6FD05B0F0BD77
:1035B0003C794000B8784000153F0300DF840500E7
:1035C000D47F05009B750500DB8F050010B5040056
:1035D000203020F087FD2000703020F083FD10BDEA
:1035E00070B5FEF703F8084D06002A78074C002A4C
:1035F00005D10749200020F055FD01232B70310033
:10360000200020F079FD70BD9079400040794000A5
:10361000393F030010B503481DF0E3FBFEF743F804
:1036200010BDC046EE7F050070B504000D000848CF
:103630001DF0D7FB210007481DF0D3FB29000648E9
:103640001DF0CFFB29002000FEF72CF870BDC0460E
:10365000028005001B8005002780050010B50400CE
:1036600001200B2C16D9083C2404240C0C2120002A
:1036700023F0CAFD0904090C05D00C21200023F019
:10368000EBFD023004E00C21200023F0E5FD0130C9
:103690000006000E10BD00007FB5164C2000FFF79D
:1036A00037FD002805D02000FDF7A6FF2000FFF71A
:1036B00027FD23F0B5FEE3880F4E0393A3880F4D3B
:1036C000029363882A0001932388010000930C4829
:1036D000330020F017FEE188638822880191A188D9
:1036E00028000091310020F00DFE064820F00AFE6F
:1036F0007FBDC04698A94000A98405003D80050013
:103700009B750500DB8F0500F0B5040087B000282D
:1037100060D0057A23F084FE6389304F0293637A88
:103720002F4E0100019332003B0000952D4820F000
:10373000E9FD6289637A3900009230002A0020F0A6
:10374000E1FD294820F0DEFD23F06AFE0590618945
:1037500026480497234F002902D0E0681EF056FB4C
:10376000234E009032000599049B380020F0CAFDDA
:1037700061891E4A002903D0E0681EF047FB020061
:103780000499300020F0BEFD174E300020F0BAFD45
:103790002B0035331B061B0E132B09D801229A4030
:1037A0001300144A134203D0200017F003FC0FE06B
:1037B00023F036FE104C01002B002200380020F0D0
:1037C000A1FD2900200020F09DFD300020F09AFD91
:1037D000002001E00120404207B0F0BD0D7F050050
:1037E000638005009B750500DB8F05005D8005008B
:1037F000838005001102080093800500F0B5634D39
:103800008BB02C78060023F00BFE614F2B78010063
:103810000093604A3B00604820F074FD2A7839002C
:103820005C4820F06FFD5D4820F06CFD21062B0008
:103830002A78002905DA7F231A40783B2A701C4336
:1038400010E001210A4201D08A432A7002211A782D
:103850000A4201D08A431A7004211A780A4201D020
:103860008A431A7023F0DCFD4D4D01003B002A0015
:103870000094494820F046FD22003900280020F03D
:1038800041FD464820F03EFD01220025144205D0AE
:1038900002AB1D705A70327A03359A70A30714D5A3
:1038A0002123012202A94B556B1C1B041B0CCA547B
:1038B000AA1C7089EB1C12041B04120C04358854DA
:1038C0001B0C2D04000A2D0CC854630714D52223A9
:1038D000012202A94B556B1C1B041B0CCA54AA1CC9
:1038E000F089EB1C12041B04120C043588541B0CC9
:1038F0002D04000A2D0CC85424060FD50923F020EE
:103900006A1C120402A9120C4B5588540322AB1CEA
:103910001B0403351B0C2D042D0CCA5423F080FD11
:103920001A4C010023781F4A00931B483B0020F0EB
:10393000E9FC227839001B4820F0E4FC174820F00D
:10394000E1FC002D20D0281D0004000CFFF786FEAE
:10395000D42306AA13720023537202ABD3603378C8
:1039600011491B015B180693782343432D33FF3322
:103970001B0455811B0C012800D95B00D380062352
:1039800010001371FFF7C0FE0BB0F0BD27784000A8
:10399000297F0500A58005009B750500DB8F0500CC
:1039A000B9800500CC80050040394000F0B5050025
:1039B0008BB00C0023F034FDCB4BAA00D758CB4E74
:1039C000010033000097CA4ACA4820F09BFC3A0025
:1039D0003100C74820F096FCC74820F093FC370020
:1039E0001F2D00D979E22800FCF78CFD22002F0062
:1039F00054006700E300B300BB00C100770275020A
:103A00002000E000E6007702770277027702770273
:103A1000770277027702DA00F60002010F011B013C
:103A20004101C301C9011C0224022C02152647E2F0
:103A300021000020FDF780FFFFF70EFC20F0ADFB1A
:103A400003200FF065F8042640E205AF03220021B1
:103A5000380021F066F8092306AE3B70E7337B702F
:103A60003000CD3BBB70FFF74FFED42333720023F1
:103A7000737203337381A14B30000693D2235B0032
:103A8000F3809B3BFF3B3371F760FFF73DFEFFF791
:103A90001FFC22E221000220FDF74EFFFFF754FC3D
:103AA0000EF0E6FFFFF7D8FB20F077FB03200FF0C6
:103AB0002FF801230426039302E000232E00039332
:103AC00005AC2000FFF788FB002835D106A8FFF7DA
:103AD000ADFB002830D123F0A3FC069B010001932D
:103AE0002388874A009383483B0020F00BFC390071
:103AF0002288069B824820F005FC7F4820F002FCCB
:103B00008048FFF733FB071E16D1218806980EF078
:103B1000EFFEFFF7C1FD0CF035F97B481DF061F9B0
:103B2000FFF7CAFB002804D03800FFF7CBFB0126C3
:103B30000DE0FFF705FD06E074481DF052F9032083
:103B40000EF0E6FF0426039B002B00D1B7E1704C7A
:103B5000BAE1704820F0C6FA02200FF011F80626EC
:103B6000AEE1FFF791FC6C4808F0BCFEB5E16B4B91
:103B70002E001A78002A00D0A2E1013265481A709E
:103B800020F0B0FA664F674E3A78002A05D16649B0
:103B9000300020F087FA01233B705F49300031E0AC
:103BA0000721624A13780B43137039E100225B4B03
:103BB0001A70FFF715FD90E1584B2E001A78002A75
:103BC00000D17DE10022267856481A7020F08AFA4A
:103BD000002E00D172E17EE1E38A1C26002B00D189
:103BE0006EE1A37D053E002B00D069E1192667E157
:103BF00020000830FFF7EAFC05222000A37D2830D2
:103C00001100594320F078FA67E120F0EFF9002322
:103C1000E27DA3759A4200D1ACE0226A8242E5D8E7
:103C2000A8E020F0E3F9070020000830FFF7CEFC01
:103C3000236A1B26643BBB4200D841E1260078364C
:103C40003000642120F058FA23F0EAFB274F0100EE
:103C50003B000096364A274820F054FB32003900DA
:103C6000334820F04FFB244820F04CFB35E120F096
:103C7000BDF9226A002311006439814261D3101A10
:103C8000642123F0E9FA8022238907005200668923
:103C9000934202D10123237204E0012B02D1002EB2
:103CA00000D12672A089002386420FD039048642B3
:103CB00005D2801B090C23F051FB361804E0301AA2
:103CC000090C23F04BFB361A01236681E689208A12
:103CD000864236D0390486422CD2801B090C23F050
:103CE0003DFB36182BE0C046407F0500BF84050031
:103CF000DE8005009B750500DB8F05004039400024
:103D0000F0800500703D400009810500228105001A
:103D1000404E40004079400060EA000026784000B4
:103D200038784000687840002D3F03002778400035
:103D300042810500301A090C23F010FB361A0123CA
:103D4000E681627A217A914207D16089A18988420D
:103D500003D1E089218A884203D02E00002B00D0B5
:103D6000AEE0A38922726381238AE3810023E37595
:103D7000B3E00023E375A36123621C26A0E023F0D7
:103D80004FFB637A574E0193237A01000093320070
:103D90003B00554820F0B6FA637A227A39003000A9
:103DA00020F0B0FA514820F0ADFA637A227A9A42B4
:103DB00000D0237223F034FBA3894D4E0193638915
:103DC0000100009332003B00474820F09BFAA38992
:103DD00062893900300020F095FA444820F092FAC8
:103DE000A38962899A4200D0638123F019FB238A58
:103DF000404E0193E3890100009332003B003A48B2
:103E000020F080FA238AE2893900300020F07AFA23
:103E1000364820F077FA238AE2899A4200D0E3817B
:103E20001E264DE08021344A494213781E260B435A
:103E3000137044E0304B1B78002BF1D02000FFF7CB
:103E4000DDFC4AE023F0ECFA2C4E3B00320001008E
:103E5000254820F057FA3900300020F053FA234863
:103E600020F050FA26481CF0BCFF2E00002C27D072
:103E7000E7686389627A217A22481CF0B2FF002F3A
:103E800009D06189002906D038001DF0BFFF01006C
:103E90001D481CF0A6FF237AD42B1ED17B783A78DC
:103EA0001B02D318194A1B041B0C2E00934207D186
:103EB000BB78032B11D1FFF743FB01E00A26144C1A
:103EC00021002800FDF738FDB54208D02100300060
:103ED000FFF76CFD03E00B26F2E72E00F0E70BB0D6
:103EE000F0BDC046558105009B750500DB8F0500C0
:103EF0006F8105008E81050027784000AB810500A9
:103F0000DE750500678005008780050009F0000068
:103F1000404E400010B5044820F0E4F800211D2078
:103F2000FFF744FD10BDC0466878400010B5002181
:103F30000920FFF73BFD10BD10B500210520FFF75C
:103F400035FD10BD080010B50C000830FFF73EFB32
:103F500021001A20FFF72AFDE37D002B04D1210068
:103F60001B20FFF723FD04E020006421783020F0BF
:103F7000C3F810BD080010B50C000830FFF726FB91
:103F800021001820FFF712FD10BD000010B5041E1F
:103F900002D001000D480BE00D481CF022FF22006A
:103FA0000C490D480EF006FE041E04D001000B481B
:103FB0001CF017FF09E00A490A481CF012FF1DF027
:103FC0004DFC21000320FFF7F1FC10BDC781050067
:103FD000E78105002878400008794000FF8105004E
:103FE000228205003782050003003F2010B51840EB
:103FF0003F2807D1074908480A001CF0F2FE0120BB
:10400000404206E09B09054A5B009B5A58436423E3
:10401000584310BDCB8405004E8205008039400016
:10402000F8B507000C0000252B061B0EBD4226D05C
:1040300020002370220028301A4920F033F8200095
:1040400022007830184920F02DF801236372174BB5
:104050000526A381164B013523824123E375642392
:10406000A3751FF0C3FFA37D5E433618A661E07DF4
:10407000FFF7BAFF361826620934FF34D4E723F07D
:10408000CFF90C4D0C4C2B00220001000B4820F006
:1040900039F92900200020F035F9094820F032F9DB
:1040A0000020F8BD753F0300453F030066E6FFFFB3
:1040B000204E0000C47F0500907505009B7505002B
:1040C000DB8F0500F7B506000F00C47B1FF08EFFE5
:1040D0000500002F3CD133690193984238D9F07B19
:1040E000FFF782FF3F24431C32D0019B3C00ED1AB6
:1040F00085422DD2401B642123F0AEF83E23154AA1
:10410000D1881D004D43A84222D894881D006543E4
:10411000A84203D923F0A0F8402408E051881D00EC
:104120004D43A84205D9210023F096F8802464422B
:1041300006E012885343984205D923F08DF84024B5
:104140000443240603E0110023F086F80406240E3D
:104150002000FEBD80394000F0B5214F85B005003C
:104160000E003C781FF042FF6B1E019002970F2B50
:1041700000D80125029B1F783B1D0393039BA3429C
:1041800019DB0521200023F03FF80906090E154B25
:10419000C900CB5CB3420AD1124B59184B88AB42D1
:1041A00005D1114A4B689B18019A9A4214D30134E5
:1041B0002406240EE2E70B4AFB009E54781CD31819
:1041C000019A00065D805A60000E052123F01CF85C
:1041D000029B0020197000E0012005B0F0BDC04630
:1041E000917940003C7840007017000010B51248EB
:1041F0001CF0F7FDFFF750F90022104B1049DA6070
:10420000D96210491A7419631860FA230E4CDB0046
:1042100023800123A3800D4B6280E360FDF7EAF960
:10422000A060FEF7EDF90A4804F076FE011E02D008
:1042300008481CF0D6FD10BD7F82050008794000BB
:104240002936030015360300287840004039400025
:104250008D3F0300C781050006207047002310B57D
:104260000849DA00545C844202D18A18937806E047
:1042700001331B2BF5D10023420600D4063318006E
:1042800010BDC0460C850500F8B5114D06002C6820
:104290000F00002C09D128000E4B58306B60210014
:1042A0001DF002FB3D60200011E023F0B9F80A4C3C
:1042B000010033002200094820F024F831002000DA
:1042C00020F020F8064820F01DF80C204042F8BDF0
:1042D0009479400088394000E48505009B7505000D
:1042E000DB8F050010B504000069002801D01DF027
:1042F00003FCA368002B01D020009847182200215E
:10430000200020F00EFC10BD10B5042105F07CFC4F
:1043100010BD10B5FFF7F8FF10BD10B5083108004B
:104320001DF0CBFC002010BD10B5FFF7EDFFC36DF5
:10433000002B03D0683002491FF07AFD10BDC04643
:1043400030750000F0B50E6887B03368002703931E
:10435000A02305000C009B0104A900680F704B808E
:1043600007F008FAB84218D0304B05A928680F703A
:104370004B8007F0FFF9B8420FD023690120BB4200
:1043800052D0D97898782A8A0902014301208A42BA
:104390004AD99A70120ADA7046E06168286807F014
:1043A000E9F9002802D0002323613CE0E368A0681B
:1043B0001A78002A06D0B38E81895B1A934201DAFB
:1043C000002031E0042108301DF0EEFB00272061C1
:1043D0002B8AA1681A06120E1B0A027043708270A3
:1043E000C3708A89B38E89689B1A1B048A181B0CB8
:1043F000290000976E680398B0470100B842DFDBE0
:10440000E0680B1D0278BA4201D1037006E09A42BF
:1044100004D0A2689389043B9381D1E7A368083351
:1044200018001DF0C1FB012007B0F0BD01280000FD
:104430008B6870B505000C000E68002B0CD1486825
:10444000012108301DF0B0FB2B68A0601A785342A0
:1044500053410222D31A0370A3681B78012B02D0A8
:10446000022B1AD038E000202B681B78834234D10D
:104470006068042108301DF097FBE0602B7C03701E
:104480006B7C43702B689A788270DB786268C370AB
:10449000B38E9089181A04231AE02B6800201B7829
:1044A000022B1AD16068122108301DF07DFBE060FC
:1044B0002B7C296803706B7C10224370E368013108
:1044C000981C20F00CFB6268B38E9089181A122396
:1044D00083428041404200E0002070BDF0B50027DB
:1044E0000E688BB0336805000393294B0C000068FD
:1044F00004A90F704B8007F03DF9B84202D10023A8
:10450000A36040E0A02305A99B0128680F704B80A1
:1045100007F030F900280ED0A3680126002B33D015
:10452000D97898782A8A090201438A422CD99A704C
:10453000120ADA7028E06268B38E928906009B1A2C
:10454000032B21D9009006AA1023290003986F6835
:10455000B847021ED3DB237C9842D0D106A9E0687D
:1045600020F0ACFA0028CAD16068667408300421D3
:104570001DF01AFBA0602B8A1A06120E1B0A02708D
:1045800043708270C370012630000BB0F0BDC0468E
:1045900001280000FA2310B50649040083864385EC
:1045A00068301FF010FC002320682366636602F069
:1045B00079FB10BDB549030030B504008B7CD007F2
:1045C00006D5152502202B421CD04D68002D19D090
:1045D000900706D52A2503202B4213D0896800298D
:1045E00010D01A4030231A4203D0237A0520022B20
:1045F00008D90C231A40101E04D00020A37A83424D
:1046000000D10F3030BDF0B50B6885B002931B6848
:1046100006000D0000684968039307F0ABF8012419
:10462000071E52D1152231000398FFF7C5FF041E63
:10463000287506D0EB681C78002C46D02F753C00FE
:1046400043E02875A868022108301DF0ADFA286102
:10465000337CA9680370737C77684370029B8A89F6
:104660009B8E89689B1A1B048A181B0C31000094CE
:104670000398B847011E09DA0200FF320E23FE2A12
:1046800002D843421B061B0E2B751EE0E8688B1CEC
:104690000278002A01D1037006E09A4204D0AA6889
:1046A0009389023B938110E0A868012408301DF033
:1046B0007BFA029BAA689B8E92899B1AEA68127801
:1046C000934200DC00242406240E200005B0F0BD37
:1046D00010B50078FFF7C2FD431E1B061B0E0348F2
:1046E000042B02D8024A9B00985810BD13430300C4
:1046F000F884050010B58B890400022B09D0102B1B
:1047000010D1022303708A890130896820F0E7F90B
:1047100006E000230831037008001DF0CEFA608027
:10472000012000E0002010BD10B5036801241B7BB0
:10473000032B04D158301DF0B5F8801084432000BD
:1047400010BD000070B50500E9650C00FFF7ECFF37
:10475000002810D122F064FE134C010022001348FF
:104760001FF0D0FD20001FF0CDFD11481FF0CAFD45
:104770003920404217E02669300008301DF0D9FA90
:10478000A081B3892069E3812D681DF0F3F92369C5
:1047900006009868FFF79CFF320003000421280000
:1047A00005F092F9002070BD098605009B75050093
:1047B000DB8F0500F0B5040085B0683003930E0070
:1047C00017001FF005FBE36D002B0ED122F028FE31
:1047D0001B4D01002A001B481FF094FD28001FF00C
:1047E00091FD19481FF08EFD1BE01869002804D0C8
:1047F0001DF082F90022E36D1A610022E36D5D680D
:104800005A60954205D0009332003B00039920681E
:10481000A847E06D4368002B01D1FFF763FD00233B
:10482000E365216E002908D00B68626E2366914211
:1048300000D163662000FFF785FF002005B0F0BDC2
:10484000168605009B750500DB8F050010B500235B
:104850008A898968FFF7AEFF10BD10B5FFF7F6FF34
:1048600010BD10B5FFF7F2FF10BD10B5FFF7EEFF5A
:1048700010BD10B5FFF7EAFF10BD10B5FFF7E6FF5A
:1048800010BD10B5FFF7E2FF10BD10B5FFF7DEFF5A
:1048900010BD10B5FFF7DAFF10BD10B5FFF7D6FF5A
:1048A00010BD10B503000C00002812D089684B78A9
:1048B0000A781B021343F92B03D8002204231100AA
:1048C00004E0F223438583860023A289FFF772FF69
:1048D0000300180010BD70B50400E36D8868002B5C
:1048E0002AD01A69002A06D015009989103569184E
:1048F0009160D98991811B7DC578002B1DD12068DD
:10490000052D05D00F2D18D1037A012B09D914E0FC
:10491000037A012B05D9022B05D00421032B03D0E8
:104920000BE0022100E0032100F05EFE002804D12C
:104930000122E36D1A7506E00E2500222B001100FE
:104940002000FFF737FF70BDF7B505000421583090
:104950001CF0B5FF2C6E002C0BD10021EB6D2966ED
:1049600069668B4217D00E230A002800FFF722FF4A
:1049700011E026686768002F05D0002300941A0014
:104980000E211800B8472000FFF7ACFC002EE4D041
:1049900034003668EEE7F7BD10B50400FFF7D4FF2A
:1049A000206802F08BF980220021200020F0B9F865
:1049B00010BD000070B5040022F032FD0C4E0D4D0C
:1049C00033002A0001000C481FF09CFC3100280035
:1049D0001FF098FC683C09481FF094FC2000FFF78A
:1049E000B3FF206802F06AF90023236070BDC0465F
:1049F000298705002D8605009B750500DB8F0500C6
:104A0000F8B504000D1E05D0002205231100FFF7A4
:104A1000D1FE29E00668337A012B25D0C36D002B27
:104A200022D01B7D002B1FD0FFF77EFE00280ED169
:104A300022F0F6FC0D4C010022000D481FF062FC34
:104A400020001FF05FFC0B481FF05CFC0CE0E36DE6
:104A50001F69B868FFF73CFE3A00030004213000EC
:104A600005F032F8E36D1D61F8BDC046098605000A
:104A70009B750500DB8F05000620704710B5FFF71A
:104A800043FC10BD10B5FFF73FFC10BD70B5037BB4
:104A9000032B04D022F0C4FC164C01001CE00421BE
:104AA00005F0C2F8041E0ED122F0BAFC124D01002E
:104AB0002A0012481FF026FC28001FF023FC104893
:104AC0001FF020FC13E058301CF0ECFE43070ED51D
:104AD00022F0A6FC01000B4C220008481FF012FC3B
:104AE00020001FF00FFC06481FF00CFC00242000E3
:104AF00070BDC0463D8605004B8605009B750500D0
:104B0000DB8F050066860500F7B50F680C00060010
:104B100001002A223800FFF74FFD051E20751CD129
:104B2000628A01900092B26831009446237CE26868
:104B300038006646B047002802DB237C984209D043
:104B40000200FF320E23FE2A02D843421B061B0E30
:104B5000237503E02575012500E000252800FEBD32
:104B6000F0B50F68060088683B6885B00C00083017
:104B7000002103931DF018F80023E0602374152230
:104B800031000398FFF718FD051E20741FD1A1689E
:104B9000BB8E8A8989689B1A8A18A1881B04009198
:104BA0001B0C310077680398B847011E09DA020030
:104BB000FF320E23FE2A02D843421B061B0E23742B
:104BC00006E0A068012508301CF0EEFF00E000259B
:104BD000280005B0F0BD000073B50E001400FFF70B
:104BE00055FF051E23D0838E01349C4213D922F039
:104BF00017FC0F4EAB8E0100320000940D481FF0E1
:104C000081FBA98E220030001FF07CFB0A481FF0B8
:104C100079FB00200BE00021080004F050FF041E87
:104C200005D0083001211CF0BFFF0670200076BDC2
:104C30008A8605009B750500DB8F050010B50831DD
:104C4000046808001DF039F800221E212000FFF73B
:104C5000C3FF021E04D0034B0421200004F034FFE4
:104C6000002010BD7D4A0300F8B58B6804001A7857
:104C70005B7804201B021343F92B1DD926680222FE
:104C800003213000FFF7A8FF05000E20002D13D0F0
:104C90002800022108301CF087FF0E2300275B420A
:104CA00003704770054B30002A00042104F00CFF0C
:104CB000F22338006385A386F8BDC046854A030009
:104CC000F7B50F0014000121042206000193FFF73D
:104CD00083FF051E10D0042108301CF065FF6B46D1
:104CE0001B794470240AC37007708470034B2A0038
:104CF0000421300004F0E8FEF7BDC046854A0300F9
:104D0000F7B58B8906000D00002B0ED122F088FB31
:104D1000344C0100220034481FF0F4FA20001FF048
:104D2000F1FA32481FF0EEFA5AE028008C68083099
:104D300001211CF0B2FF002321782D4ADF00B85C6E
:104D4000884219D12A4BA989DB195A78914217D286
:104D500022F066FB2278AB89010000922248254AA6
:104D60001FF0D0FA2278A98922481FF0CBFA1F48F9
:104D70001FF0C8FA042308E001331B2BDED113E037
:104D80005B682900300098470300194AD2199278CD
:104D9000012A25D1002B23D02178002920D0002200
:104DA0003068FFF78DFF1BE022F03AFB124D2378AD
:104DB00001002A000C481FF0A5FA217828001FF0F6
:104DC000A1FA0A481FF09EFA24782000FFF746FA5D
:104DD000002805D0002C03D0062300222100DFE7A5
:104DE000F7BDC046AF8605009B750500DB8F05004B
:104DF0000C850500CA860500E9860500F0B58B899B
:104E00008FB007000E00062B02D00425142B79D199
:104E100030003B6804210193B36808305C781A784D
:104E2000240214439A78DB780E251B021343009367
:104E30001CF033FF310004A8FFF75CFC002861D0B0
:104E4000002C07D00025009BAB4202D09C4201D829
:104E500008E0009C0123220010210198FFF730FF99
:104E600000254FE002AB1D70A02302AA9B01110098
:104E700004A8538006F07EFC00280DD0234B03A924
:104E800004A80D704B8006F075FC002804D0102398
:104E90002200190001982BE03E681422002109A885
:104EA0001FF03FFE012211213000FFF795FE0E2575
:104EB0000B90002826D004AB0121083009970A93F3
:104EC00000271CF071FE09AB0C90114A0770009985
:104ED00020000D9701F0F6FD0C9B1D780093BD425C
:104EE00009D10B981CF008FE0A2322001021300083
:104EF000FFF7E6FE06E0074B0B9A0421300004F0B2
:104F0000E3FD3D0028000FB0F0BDC04601280000C1
:104F100045430300854A0300F0B587B0056801AC3E
:104F2000142206000F00200000211FF0FAFD0022CD
:104F30000F212800FFF750FE0E23A060002823D089
:104F40000196BB89012B18D9380008301CF0B5FE3A
:104F500001230F4A237401002300060001F0B2FD73
:104F6000237C002BEDD0A0681CF0C6FD237C320012
:104F70000E212800FFF7A4FE05E0064BA2680421DD
:104F8000280004F0A1FD0023180007B0F0BDC046C2
:104F9000614B0300854A0300F0B58BB01E0010ABD7
:104FA0001B8800900191029203930125002E33D0BB
:104FB000076805AC1422002120001FF0B2FD00227A
:104FC00002993800FFF708FE0D35A060002823D0B5
:104FD000009B134A05936B469B893100A3800123F4
:104FE00030002374230001F06DFD257C002D0DD0D1
:104FF0000025A0681CF080FD019BAB420CD0237CF7
:10500000320001993800FFF75BFE05E0054BA2680E
:105010000421380004F058FD28000BB0F0BDC04654
:10502000614B0300854A030007B58A6853781178FD
:105030001B020B439178D27812020A4300920C2192
:105040000D22FFF7A9FF0EBD07B58B680A211A785C
:105050005B781B021343002200920B32FFF79CFF88
:105060000EBD0000F0B58FB001908B890E00062BAD
:1050700002D00425142B59D13000019B04211F6854
:10508000B36808305C781A78240214439A78DB7885
:105090000E251B02134300931CF0FFFD310003A8F3
:1050A000FFF728FB002841D0002C06D0009B002BE6
:1050B00002D09C4201D808E0009C01232200082174
:1050C0003800FFF7FDFD002530E0019B08AE1F68AA
:1050D0001822002130001FF024FD01220921380090
:1050E000FFF77AFDB060002820D0019B01210893D2
:1050F000083003AB73601CF057FD0023F0600370B1
:105100000A230C4A337500993300200001F0DAFCC1
:10511000357D002D04D0B0681CF0EEFC337DCDE76A
:10512000054BB2680421380004F0CEFC28000FB013
:10513000F0BDC04607460300854A0300F0B50D00E8
:105140000368070028008BB001938B6808305C78F7
:105150001A7824021443DA78997812020A430092EA
:105160005E791A793602062116431CF096FD0290EC
:10517000002C06D0009B002B02D09C4201D808E0F6
:10518000009C0123220006210198FFF799FD0026CB
:1051900036E0A0239B019E4201D00A23F2E7AB89AF
:1051A00005AD03933B6814220021280001931FF0F2
:1051B000B8FC002207210198FFF70EFD0E2668605B
:1051C00000281DD0029B0597EB606B461B7B0027D8
:1051D0002B740A230C4A6B7400992B002000AF60DB
:1051E00001F070FC6E7CBE4204D068681CF084FC48
:1051F0006B7CC7E7054B6A680421019804F064FCE6
:1052000030000BB0F0BDC046DD440300854A03000A
:10521000F0B58B6885B05C781A78240207000668C0
:10522000144308D0DD789A782D02154302D0AC42A1
:1052300001D808E02C000123220004213000FFF7F0
:105240003FFD002024E01022002168461FF069FC89
:10525000002205213000FFF7BFFC030001900E2063
:10526000002B15D029006B460A4A2000009701F058
:1052700029FC029D002D04D101981CF03DFC0A235D
:10528000DAE7054B019A0421300004F01DFCD8E751
:1052900005B0F0BD31440300854A0300F0B58BB082
:1052A000019310AB170004CB05001B780E0002928F
:1052B0000021182204A803931FF033FC002F19D1FA
:1052C00004AB1E72002304AA5382029B0199079328
:1052D00013006A46127B08001A74012304AA13758E
:1052E0001300194A049501F0EDFB04AB1C7D002C62
:1052F0000AD11EE0002239002800FFF76DFC0E24C1
:1053000005900028DCD11CE0002F0DD005981CF082
:10531000F3FB002E01D1002413E004AB1B7D019AA6
:1053200031002800FFF7CCFC182EF4D104AB1C7D13
:1053300007E0059A002AEED0044B0421280004F06F
:10534000C3FB20000BB0F0BD094B0300854A0300EE
:10535000F0B50E000C008B6807681A785B78083689
:105360001B0285B013430121300003931CF072FC33
:105370002100380006F014F9051E0FD022F050F875
:10538000144C0100220014481EF0BCFF20001EF047
:10539000B9FF12481EF0B6FF002018E001213000CE
:1053A0001CF07BFC022130001CF077FC039B0120E9
:1053B000002B0CD0A3892A000C3B1B061B0E01936B
:1053C000A368290000933800039BFFF767FF05B02F
:1053D000F0BDC046018705009B750500DB8F050009
:1053E00037B50568080008300C001CF066FC0300A7
:1053F0000120002B08D0227B28000192A268009295
:1054000000221100FFF74AFF3EBD37B505680800CE
:1054100008300C001CF051FC03000120002B08D0C8
:10542000227B12210192A268280000921322FFF72A
:1054300035FF3EBD10B5034804F0BEFA01F03EFA58
:1054400010BDC0469C39400010B5FFF71FFB002877
:1054500000D0808E10BD10B50C00002819D0002996
:1054600017D0FFF713FB002815D0C36D002B0CD00D
:105470000023426E23609A4203D144660466100002
:105480000BE014604466180007E02100FFF75AF9AA
:1054900003E0162000E03920404210BD70B5050041
:1054A000064B1C68002C07D02368002B02D0E97A39
:1054B00028009847A469F5E770BDC046707A40009F
:1054C00010B5C3890400002B05D000691CF014FB43
:1054D00000232361E38110BD024B9233187800064C
:1054E00000167047883B4000054B92331A78002A1B
:1054F00003D0013A1A70002001E0012040427047B9
:10550000883B4000034B002092331A7801321A7016
:105510007047C046883B400070B505000A4B1C68C8
:10552000002C0FD0E668002E0AD02B002A0029009C
:105530006E336C3266311B88128809882800B047A8
:10554000A469EDE770BDC046707A4000F8B5070069
:1055500008000E0001F048FD051E01D1002513E0F2
:105560000A4B1C68002C0FD0A368002B01D1A46942
:10557000F8E73100380098470028EFD0300001F0FC
:1055800033FD0028F3D1E9E72800F8BD707A400028
:1055900070B50600C37804005736002B00D10736DB
:1055A000074B1D68002D09D02B69002B04D0220069
:1055B0003100503220009847AD69F3E770BDC04616
:1055C000707A400070B50500064B1C68002C07D0AF
:1055D0006369002B02D0297A28009847A469F5E76F
:1055E00070BDC046707A400010B5037B0400032BE9
:1055F00015D1037A8B4201D3002012E0437A8B420B
:10560000FAD2C3784172012B04D105F065FF00285E
:1056100002D1F1E716204042237A637201E039207B
:10562000404210BD024B1A68186082617047C04644
:10563000707A4000F7B505000C001600012A23D04F
:10564000022A57D18A685678137836021E43C389D6
:10565000002B10D021F0E4FE434F01003A004348F4
:105660001EF050FE38001EF04DFE41481EF04AFE6E
:105670002800FFF725FFA3890436F31A1B041B0C2F
:10568000EB814BD02C616DE0C389002B04D121F05C
:10569000C7FE384E010006E08E89B3420BD221F0DE
:1056A000BFFE0100344E320030481EF02BFE3000A9
:1056B0001EF028FE2BE0006908301CF03FFB8642FC
:1056C00004D921F0ADFE2D4E0100ECE72869A28936
:1056D000A16808301CF06FFAEB89A28920009B1AA0
:1056E000EB811CF009FAEB89002B3BD12C69EB8193
:1056F0002B6113E021F094FE214F010033003A00AA
:105700001A481EF0FFFD310038001EF0FBFD18485E
:105710001EF0F8FD2800FFF7D3FE1BE0A3685E78BB
:105720001A7836021643A389321D9A4216D021F008
:1057300077FE144DA389010000932A0033000B4823
:105740001EF0E0FDA289310028001EF0DBFD0848B4
:105750001EF0D8FD20001CF0CFF903E02100280046
:1057600004F072FAF7BDC046358705009B75050049
:10577000DB8F0500528705007087050084870500D0
:10578000AB870500C987050070B5050088790C0056
:1057900016001CF0ADF8C38A042B12D821F040FE8D
:1057A000194D01002A0019481EF0ACFD28001EF01A
:1057B000A9FD17481EF0A6FD20001CF09DF916203B
:1057C00014E02A7B032A13D021F02AFE114D010098
:1057D0002A000E481EF096FD28001EF093FD0C488E
:1057E0001EF090FD20001CF087F9392040420AE0AD
:1057F0002800E3892C30E318133393431E60210003
:105800001CF060F9002070BDE58705009B75050060
:10581000DB8F0500FE87050070B50500280000211C
:105820001C301CF0F5FC041E0FD06368002B01D067
:105830002800984700236360044B1A6822605A6866
:105840001C60002AEAD15C60E8E770BD147A400071
:10585000F7B505000E0014000193FFF745FE012780
:10586000002800D07FE0444F380044301CF01AF884
:10587000002806D03B7B033B012B02D83800FFF702
:10588000CBFF2F7B032F6AD13000042108301CF09E
:10589000E1F902222B8824031C430470240A44707B
:1058A000B389043B83701B0AC370F389F318133365
:1058B000BB4319681A70314B1C68586822681A601B
:1058C000844200D15A6061601EF0E4FB0023236033
:1058D000AB69002B02D1AC616C6101E01C60AC6172
:1058E0001EF0DCFB300002F05DFC00270090B842A7
:1058F0003FD021F095FD009B214A010021481EF078
:1059000001FD00991E481EF0FDFC1F481EF0FAFC28
:105910001EF0C0FB3A006B69002B14D09C420FD1E3
:105920002368A969002A04D16B618C4205D1AB615F
:1059300003E013608C4200D1AA610023236002E0DF
:105940001A001B68E8E71EF0A9FB002363600B4BFD
:105950001A6822605A681C60002A00D15C60280026
:10596000FFF7D0FD0227019B002B02D030001CF076
:10597000C3F83800FEBDC046747A4000147A400077
:105980000D8805009B750500DB8F050070B50400D0
:10599000200000212C301CF025F8051E03D0280023
:1059A0001CF0AAF8F4E72000FFF736FFA06C0028EF
:1059B00002D01CF0A1F8A5642000FFF781FD2000B3
:1059C00044301BF064FF70BDF8B5184F0500380077
:1059D00044301BF067FF3E00002801D1002024E086
:1059E0003C7B002C0AD14121381D49421BF073FF3A
:1059F000430603D53800FFF7C9FFEFE7347B032CDC
:105A0000ECD1330028001C33002221001CF0E9FAFD
:105A1000012328002B73330014302C330022210083
:105A20001CF0DFFA02200135E877F8BD747A4000F7
:105A3000F8B5164C07002600443630001BF032FF44
:105A400005000020002D20D19422290020001FF005
:105A500068F8012130001BF027FF200007223900E1
:105A600050301FF03CF80123237263722300182288
:105A700068331A80230020006A3310327C30A5700E
:105A80001A8003491EF09FF92000F8BD747A400087
:105A9000655C030070B50B4C0600250044352800FA
:105AA0001BF000FF002290420AD0237B033B012B16
:105AB00006D82388B34203D128001BF0DDFE220064
:105AC000100070BD747A400070B50D000100040034
:105AD0005031072228001EF0F1FF00280AD0E37899
