:020000023000CC
:10000000BA0000EA14F09FE514F09FE514F09FE5B4
:1000100014F09FE514F09FE514F09FE514F09FE5C0
:10002000400003006000030080000300A000030004
:10003000C0000300E000030000010300EFBEADDEDE
:100040000E00A0E1D3F021E30E10A0E10D20A0E10D
:10005000B57500EA0000000000000000000000008C
:100060000E00A0E1D3F021E30E10A0E10D20A0E1ED
:10007000AD7500EA00000000000000000000000074
:100080000E00A0E1D3F021E30E10A0E10D20A0E1CD
:10009000A57500EA0000000000000000000000005C
:1000A0000E00A0E1D3F021E30E10A0E10D20A0E1AD
:1000B0009D7500EA00000000000000000000000044
:1000C000FEFFFFEA0000000000000000000000004A
:1000D0000000000000000000000000000000000020
:1000E00003002DE924119FE5000091E510FF2FE1A9
:1000F0000000000000000000000000000000000000
:1001000003002DE908119FE5000091E510FF2FE1A4
:10011000FEFFFFEA0300FDE80E002DE90D10A0E14F
:100120000CD08DE204204EE200304FE1D3F021E309
:1001300004002DE9F05F2DE97000B1E870002DE9B1
:1001400001002DE908002DE9C8409FE5005094E525
:1001500000D085E5EC6D00FAD2F021E31C7A00FABC
:10016000D3F021E3F06D00FA1000BDE804F06FE178
:10017000FFDFFDE80300FDE800804FE100904FE164
:100180001F8008E2120058E30600001AFF5F2DE905
:10019000917400EB227A00FA957400EBFF5FBDE8E2
:1001A00009F06FE104F05EE20E002DE90D10A0E110
:1001B0000CD08DE204204EE200304FE1D3F021E379
:1001C00004002DE9F05F2DE97000B1E870002DE921
:1001D00001002DE908002DE938409FE5005094E525
:1001E00000D085E5C86D00FAD1F021E30C7A00FA61
:1001F000D3F021E3CC6D00FA1000BDE804F06FE10C
:10020000FFDFFDE80000A0E3900F07EE1EFF2FE1E7
:0C0210000400400008004000D0A24000A4
:1002200000000FE1C01080E301F021E100100FE1B8
:10023000C01001E2C00051E3F8FFFF1A1EFF2FE1DA
:1002400000F021E11EFF2FE170009FE5000090E526
:1002500000D090E50100BDE838109DE5010011E3F4
:100260002000801300F06FE1FFDFFDE800402DE982
:10027000FF5F2DE900000FE101002DE93C009FE543
:10028000000090E500D080E51E9900EB30009FE56E
:1002900028109FE5000090E5000081E51C009FE527
:1002A000000090E500D090E50100BDE838109DE524
:1002B000010011E32000801300F06FE1FFDFFDE893
:1002C000D0A2400014A640002CDD40001000000029
:1002D0002CE54000F00F00003CDD4000F003000082
:1002E0001CED4000F00700000CF54000F00300009A
:1002F00000000FE1C00080E300F021E100000FE109
:100300001F00C0E31F0080E300F021E12C001FE587
:100310002C101FE5001081E001D0A0E1A8219FE58D
:10032000010050E1002080B5040080B2FBFFFFBA5D
:1003300000000FE11F00C0E3170080E300F021E19F
:1003400070001FE570101FE5001081E001D0A0E1F2
:1003500078219FE5010050E1002080B5040080B2C3
:10036000FBFFFFBA00000FE11F00C0E31B0080E3AA
:1003700000F021E1A4001FE5A4101FE5001081E0BA
:1003800001D0A0E144219FE5010050E1002080B5AB
:10039000040080B2FBFFFFBA00000FE11F00C0E3C2
:1003A000120080E300F021E1E0001FE5E0101FE50E
:1003B000001081E001D0A0E114219FE5010050E18F
:1003C000002080B5040080B2FBFFFFBA00000FE1FF
:1003D0001F00C0E3110080E300F021E104011FE5EC
:1003E00004111FE5001081E001D0A0E1E4209FE5A9
:1003F000010050E1002080B5040080B2FBFFFFBA8D
:100400000080A0E30090A0E300A0A0E300B0A0E380
:1004100000C0A0E300000FE11F00C0E3130080E371
:1004200000F021E154011FE554111FE5001081E0A7
:1004300001D0A0E194209FE5010050E1002080B5AB
:10044000040080B2FBFFFFBA0E0000EB150000EBCA
:100450000000A0E30010A0E30020A0E30030A0E330
:100460000040A0E30050A0E30060A0E30070A0E320
:100470000080A0E30090A0E300A0A0E300B0A0E310
:1004800000C0A0E3A89800EA4C009FE54C109FE54F
:100490004C209FE5020051E1044090340440813437
:1004A000FBFFFF3A1EFF2FE138009FE538109FE564
:1004B0000130A0E10040A0E10020A0E3030054E1EE
:1004C00004208434FCFFFF3A1EFF2FE1EEEEEEEE37
:1004D000BBBBBBBBCCCCCCCCDDDDDDDDA8CE050011
:1004E00000184000492F4000782F40004CBA4000CF
:1004F00002B4714649084900095649008E4402BCBD
:100500007047C04602B4714649084900095C490079
:100510008E4402BC7047C04603B47146490840008F
:100520004900095A49008E4403BC7047012051E23A
:100530001EFF2F013600003A010050E12200009A10
:10054000020011E12300000A0E0211E38111A00153
:100550000830A0030130A013010251E30000513123
:100560000112A0310332A031FAFFFF3A020151E338
:10057000000051318110A0318330A031FAFFFF3AE1
:100580000020A0E3010050E101004020032082216F
:10059000A10050E1A1004020A3208221210150E1CF
:1005A0002101402023218221A10150E1A10140200D
:1005B000A3218221000050E32332B0112112A011A7
:1005C000EFFFFF1A0200A0E11EFF2FE10100A003D0
:1005D0000000A0131EFF2FE1010851E32118A02104
:1005E0001020A0230020A033010C51E32114A021EE
:1005F00008208222100051E32112A021042082222F
:10060000040051E303208282A12082903002A0E105
:100610001EFF2FE11FFF2FE10000A0E1000050E3CB
:100620000000E013439800EA000051E3F8FFFF0ADE
:1006300003402DE9BCFFFFEB0640BDE8920003E05C
:10064000031041E01EFF2FE1000051E34300000AC8
:1006500001C020E000106142012051E22700000AA1
:100660000030B0E100306042010053E12600009A02
:10067000020011E12800000A0E0211E38111A0011D
:100680000820A0030120A013010251E3030051310F
:100690000112A0310222A031FAFFFF3A020151E318
:1006A000030051318110A0318220A031FAFFFF3ABE
:1006B0000000A0E3010053E101304320020080214B
:1006C000A10053E1A1304320A2008021210153E188
:1006D0002131432022018021A10153E1A131432096
:1006E000A2018021000053E32222B0112112A011A7
:1006F000EFFFFF1A00005CE3000060421EFF2FE1E5
:1007000000003CE1000060421EFF2FE10000A0332A
:10071000CC0FA001010080031EFF2FE1010851E36F
:100720002118A0211020A0230020A033010C51E3A8
:100730002114A02108208222100051E32112A021BF
:1007400004208222040051E303208282A1208290AF
:1007500000005CE33302A0E1000060421EFF2FE1D5
:100760001FFF2FE10000A0E1000050E30201E0C301
:100770000201A0B3EF9700EA000051E3F7FFFF0A80
:1007800003402DE9B1FFFFEB0640BDE8920003E016
:10079000031041E01EFF2FE17047C0469140031C4B
:1007A00090409C46203A9340194352426346D340BE
:1007B00019437047021121E2000000EA023123E2EE
:1007C00030402DE98140A0E18350A0E1050034E1F3
:1007D0000200300100C0941102C09511C4CAF0118A
:1007E000C5CAF0118C00000AA44AA0E1A55A74E021
:1007F000005065B2060000DA054084E0022020E0E7
:10080000033021E0000022E0011023E0022020E07C
:10081000033021E0360055E33040BD881EFF2F81B4
:10082000020111E30116A0E101C6A0E321168CE14B
:100830000100000A000070E20010E1E2020113E38F
:100840000336A0E123368CE10100000A002072E2A9
:100850000030E3E2050034E16900000A014044E2AF
:1008600020E075E2050000BA12CEA0E1320590E06A
:100870000010A1E2130E90E05315B1E0060000EA6B
:10088000205045E220E08EE2010052E313CEA0E1C9
:1008900002C08C23530590E0C31FB1E0025101E276
:1008A0000200005A00C07CE20000F0E20010E1E229
:1008B000010651E30F00003A020651E30600003A38
:1008C000A110B0E16000B0E16CC0A0E1014084E2A1
:1008D000842AA0E1010572E36B00002A02015CE3B7
:1008E000A0C0B0010000B0E2041AA1E0051081E14F
:1008F0003040BDE81EFF2FE18CC0B0E10000B0E049
:100900000110A1E0014054E201065123F2FFFF2A49
:10091000000031E31430A0133430A0030010A00114
:100920000000A0030120A0E1010852E32228A02139
:1009300010304322010C52E32224A021083043222C
:10094000100052E32222A02104304322040052E38B
:1009500002304322A2304330A23143E0202053E250
:10096000070000AA0C2092E2040000DA14C082E220
:100970000C2062E2110CA0E13112A0E1040000EAB7
:10098000142082E220C062D21112A0E1301C81D179
:100990001002A0D1034054E0041A81A0051081A1E7
:1009A0003040BDA81EFF2FA10440E0E11F4054E2EB
:1009B0000F0000AA0C4094E2060000CA144084E232
:1009C000202064E23004A0E1110280E1311485E1CD
:1009D0003040BDE81EFF2FE10C4064E2202064E2BD
:1009E0003002A0E1110480E10510A0E13040BDE833
:1009F0001EFF2FE13104A0E10510A0E13040BDE869
:100A00001EFF2FE1000034E3013623E2011621022C
:100A100001408402015045128FFFFFEAC4CAF0E191
:100A2000C5CAF0111D00000A050034E102003001C2
:100A30000400000A00C094E10310A0010200A0011C
:100A40003040BDE81EFF2FE1030031E10010A0138C
:100A50000000A0133040BD181EFF2F11A4CAB0E142
:100A60000400001A8000B0E10110B1E002118123FE
:100A70003040BDE81EFF2FE1014594E201168132AE
:100A80003040BD381EFF2F31025101E27F1485E353
:100A90000F1681E30000A0E33040BDE81EFF2FE108
:100AA000C4CAF0E10310A0110200A011C5CAF001F0
:100AB0000130A0110020A011014690E103569201DF
:100AC00003003101021781133040BDE81EFF2FE102
:100AD000000030E30010A0031EFF2F0130402DE97D
:100AE000014BA0E3324084E20050A0E30010A0E3F9
:100AF00086FFFFEA000030E30010A0031EFF2F0175
:100B000030402DE9014BA0E3324084E2025110E273
:100B1000000060420010A0E37CFFFFEA8020B0E10B
:100B2000C211A0E16110A0E1020EA0E1FF34121297
:100B3000FF0433130E1321121EFF2F11FF24D2E3E3
:100B40001EFF2F01FF0433E3021781031EFF2F0155
:100B500030402DE90E4DA0E3025101E20211C1E344
:100B60006AFFFFEA012090E11EFF2F0130402DE9CE
:100B70000050A0E3060000EA012090E11EFF2F01D3
:100B800030402DE9025111E20100005A000070E2EC
:100B90000010E1E2014BA0E3324084E221CBB0E15E
:100BA00042FFFF0A0320A0E3ACC1B0E103208212A0
:100BB000ACC1B0E103208212AC2182E0203062E2BD
:100BC00010C3A0E13002A0E1110380E13112A0E1E5
:100BD000024084E035FFFFEA70402DE9FFC0A0E34A
:100BE00007CC8CE3214A1CE0235A1C100C00341162
:100BF0000C0035117500000B054084E0036021E016
:100C00008C1AC1E18C3AC3E1015690E1035692116E
:100C1000011681E3013683E31D00000A90C28EE0D5
:100C20000050A0E391E2A5E0022106E290E3A5E0F6
:100C30000060A0E39153A6E000003CE301E08E13C6
:100C4000FF4044E2020C56E3034CC4E20200002AD7
:100C50008EE0B0E10550B5E00660A6E0861582E1C1
:100C6000A51A81E18505A0E1AE0A80E18EE5A0E14B
:100C7000FDC054E2070C5C831100008A02015EE3B0
:100C8000A0E0B0010000B0E2041AA1E07040BDE8AD
:100C90001EFF2FE1026106E2011086E1020080E101
:100CA000031021E0AC4054E00C5074C0041A81C120
:100CB0007040BDC81EFF2FC1011681E300E0A0E314
:100CC000014054E25D0000CA360074E30000A0D386
:100CD000021101D27040BDD81EFF2FD1004064E246
:100CE000204054E21A0000AA0C4094E20C0000CA12
:100CF000144084E2205064E21035A0E13004A0E109
:100D0000110580E1022101E20211C1E3A30F90E08D
:100D10003114A2E083E09EE1A30FC0017040BDE862
:100D20001EFF2FE10C4064E2205064E21034A0E189
:100D30003005A0E1110480E1021101E2A30F90E06F
:100D40000010A1E283E09EE1A30FC0017040BDE866
:100D50001EFF2FE1205064E210E58EE13034A0E167
:100D6000113583E13104A0E1021101E23104C0E157
:100D7000A30F80E083E09EE1A30FC0017040BDE8B7
:100D80001EFF2FE1000034E30800001A026101E2B7
:100D90008000B0E10110A1E0010611E3014044022E
:100DA000FAFFFF0A061081E1000035E31EFF2F1154
:100DB000026103E28220B0E10330A3E0010613E305
:100DC00001504502FAFFFF0A063083E11EFF2FE1C2
:100DD0000C0034E1235A0CE00C0035110700000A26
:100DE000816090E183609211E5FFFF1A031021E01A
:100DF000021101E20000A0E37040BDE81EFF2FE1F8
:100E0000816090E10200A0010310A00183609211B3
:100E10001000000A0C0034E10100001A016690E1A4
:100E20000C00001A0C0035E10300001A036692E181
:100E30000200A0110310A0110600001A031021E007
:100E4000021101E27F1481E30F1681E30000A0E3A9
:100E50007040BDE81EFF2FE17F1481E33E1781E360
:100E60007040BDE81EFF2FE170402DE9FFC0A0E3F8
:100E700007CC8CE3214A1CE0235A1C100C003411CF
:100E80000C0035115E00000B054044E003E021E05A
:100E9000035692E10116A0E14C00000A0336A0E1DE
:100EA0000152A0E3233285E1223C83E10224A0E148
:100EB000215285E1205C85E10064A0E102110EE28F
:100EC000030055E102005601FD40A4E2034C84E218
:100ED0000100002AA330B0E16220A0E1026056E0E8
:100EE0000350C5E0A330B0E16220A0E10106A0E319
:100EF00002C7A0E302E056E003E0D5E0026046202E
:100F00000E50A0210C008021A330B0E16220A0E1AE
:100F100002E056E003E0D5E0026046200E50A0213A
:100F2000AC008021A330B0E16220A0E102E056E0F5
:100F300003E0D5E0026046200E50A0212C01802164
:100F4000A330B0E16220A0E102E056E003E0D5E08A
:100F5000026046200E50A021AC01802106E095E100
:100F60000D00000A0552A0E1265E85E10662A0E1BF
:100F70008331A0E1A23E83E18221A0E12CC2B0E155
:100F8000DBFFFF1A010611E30600001A001081E1E1
:100F90000000A0E302C1A0E3D5FFFFEA010611E3D0
:100FA000001081010000A003FDC054E2070C5C8327
:100FB00043FFFF8A03C055E002C05600A0C0B00145
:100FC0000000B0E2041AA1E07040BDE81EFF2FE16E
:100FD00002E10EE221168EE1AC4094E00C5074C0A8
:100FE000041A81C17040BDC81EFF2FC1011681E3E4
:100FF00000E0A0E3014054E231FFFFEA06E085E1B2
:101000002FFFFFEA235A0CE00C0034E10C003501FD
:1010100090FFFF0A0C0034E10600001A014690E13F
:101020008CFFFF1A0C0035E183FFFF1A0200A0E1DC
:101030000310A0E187FFFFEA0C0035E10400001A6D
:10104000035692E168FFFF0A0200A0E10310A0E14D
:1010500080FFFFEA816090E18360921148FFFF1AF0
:10106000814090E174FFFF1A835092E15EFFFF1A06
:1010700078FFFFEA8120B0E10A00002A022692E20E
:101080000A00002A0700005A3E3EE0E3C22A53E06D
:101090000800004A8135A0E1023183E3A03A83E1F0
:1010A0003302A0E11EFF2FE10000A0E31EFF2FE1AD
:1010B000010690E10100001A0000E0E31EFF2FE1AD
:1010C0000000A0E31EFF2FE18120A0E1073252E2E1
:1010D00002C653227FC57C220600009A02C101E2AB
:1010E0008021A0E1A00E8CE1020152E30301A0E007
:1010F0000100C0031EFF2FE1010111E30F00001AE0
:101100002E2693E2020101B21EFF2FB1011681E3E8
:10111000A22AA0E1182062E220C062E2103CB0E105
:101120003002A0E1010080138135A0E1A335A0E1E8
:10113000130C80E13332A0E18330A0E1E6FFFFEA47
:10114000C23AF0E10300001A013690E17F04A013D7
:10115000030580131EFF2F11020101E27F0480E3CB
:10116000020580E31EFF2FE1020120E2000000EAF9
:10117000021121E28020B0E18130B0110300321170
:1011800042CCF01143CCF0114700000A222CA0E120
:10119000233C72E0032082C0011020C0000021C067
:1011A000011020C0003063B2190053E31EFF2F81ED
:1011B000020110E3020580E3FF04C0E300006012B7
:1011C000020111E3021581E3FF14C1E30010611273
:1011D000030032E12E00000A012042E2510390E0B8
:1011E000203063E21113A0E1023100E20100005A55
:1011F000001071E20000E0E2020550E30B00003A4B
:10120000010450E30400003AA000B0E16110A0E145
:10121000012082E2FE0052E33800002A020151E37D
:10122000820BA0E00100C003030080E11EFF2FE15C
:101230008110B0E10000A0E0012052E2020550233D
:10124000F5FFFF2A20C6B0E10006A0010C204202F3
:10125000FF0810E30004A001082042020F0610E37B
:101260000002A00104204202030510E30001A001D6
:1012700002204202020550E38000A0310020D2E2A9
:10128000820B80A0002062B2030080A1300283B1F3
:101290001EFF2FE1000032E3021521E202052002C9
:1012A0000120820201304312CAFFFFEA8130A0E12F
:1012B00042CCF0E143CCF0111300000A030032E10C
:1012C0000200000A000032E30100A0011EFF2FE12E
:1012D000010030E10000A0131EFF2F11FF0412E3F4
:1012E0000200001A8000B0E1020180231EFF2FE1FE
:1012F000022492E2020580321EFF2F31023100E209
:101300007F0483E3020580E31EFF2FE1422CF0E11E
:101310000100A011433CF0010010A0118024B0E1B5
:101320008134B00101003001010580131EFF2FE15F
:101330000030A0E3010000EA023110E20000604248
:1013400000C0B0E11EFF2F014B3483E30010A0E189
:101350000000A0E30F0000EA012090E11EFF2F0132
:101360000030A0E3050000EA012090E11EFF2F01FC
:10137000023111E20100005A000070E20010E1E2C7
:1013800001C0B0E100C0A0010010A0010000A00356
:101390005B3483E301324302023543E21720A0E3CA
:1013A00001085CE32CC8A02110204222010C5CE360
:1013B0002CC4A0210820422210005CE32CC2A021F2
:1013C0000420422204005CE302204222AC2042308E
:1013D000AC2152E0823B43E0060000BA113283E0C8
:1013E00010C2A0E1202062E202015CE33002A3E02F
:1013F0000100C0031EFF2FE1202082E211C2A0E104
:10140000202062E28C0090E13102A3E0AC0FC00129
:101410001EFF2FE1FFC0A0E3A02B1CE0A13B1C108E
:101420000C0032110C0033113E00000A032082E050
:1014300001C020E08004B0E18114B0111000000A66
:101440000233A0E3A00283E1A11283E1903181E0A5
:1014500002010CE2020551E38110A031A31F81318A
:101460008330A031010080E17F20C2E2FD0052E321
:101470000F00008A020153E3820BA0E00100C003C9
:101480001EFF2FE1000030E302C10CE28114A00135
:10149000A0048CE1A10480E17F2052E2FF3072C2FF
:1014A000820B80C11EFF2FC1020580E30030A0E344
:1014B000012052E2350000CA190072E3020100D295
:1014C0001EFF2FD1002062E28010B0E13112A0E1B6
:1014D000202062E210C2A0E16100B0E10000A0E2C1
:1014E0008C3093E1AC0FC0011EFF2FE1000032E30E
:1014F00002C100E28000A0010205100301204202A7
:10150000FBFFFF0A0C0080E1000033E302C101E2AF
:101510008110A0010205110301304302FBFFFF0A05
:101520000C1081E1C0FFFFEAA13B0CE00C0032E1AE
:101530000C0033110500000A02C1D0E302C1D1132F
:10154000E9FFFF1A010020E0020100E21EFF2FE187
:10155000000030E3020130130100A001000031134C
:10156000020131130D00000A0C0032E10100001AE3
:101570008024B0E10900001A0C0033E10200001AD7
:101580008134B0E10100A0110400001A010020E044
:10159000020100E27F0480E3020580E31EFF2FE1E9
:1015A0007F0480E3030580E31EFF2FE1FFC0A0E37B
:1015B000A02B1CE0A13B1C100C0032110C003311BD
:1015C0003A00000A032042E001C020E08114B0E1AB
:1015D0008004A0E11C00000A0132A0E3211283E193
:1015E000203283E102010CE2010053E18330A0319B
:1015F0007D20A2E202C5A0E3010053E101304320B7
:101600000C008021A10053E1A1304320AC008021D7
:10161000210153E1213143202C018021A10153E11B
:10162000A1314320AC0180210332B0E12CC2B011C2
:10163000F0FFFF1AFD0052E39DFFFF8A010053E116
:10164000820BA0E00100C0031EFF2FE102C10CE2EB
:10165000A0048CE17F2092E2FF3072C2820B80C135
:101660001EFF2FC1020580E30030A0E3012052E2FB
:101670008FFFFFEA000032E302C100E28000A00118
:101680000205100301204202FBFFFF0A0C0080E16B
:10169000000033E302C101E28110A0010205110341
:1016A00001304302FBFFFF0A0C1081E1C4FFFFEA97
:1016B000A13B0CE00C0032E10500001A8024B0E1EF
:1016C000B6FFFF1A0C0033E1AFFFFF1A0100A0E1E3
:1016D000B2FFFFEA0C0033E10300001A8134B0E1ED
:1016E00097FFFF0A0100A0E1ACFFFFEA02C1D0E3CF
:1016F00002C1D113DEFFFF1A0221D0E3A2FFFF1ABD
:101700000231D1E38EFFFF1AA4FFFFEA00C0E0E33D
:10171000020000EA01C0A0E3000000EA01C0A0E36B
:1017200004C02DE58020A0E18130A0E142CCF0E1B1
:1017300043CCF0110700000A04D08DE2A3C092E16F
:101740000100301103005250C10FA081C10FE031E0
:10175000010080131EFF2FE142CCF0E10100001ACE
:1017600080C4B0E10300001A43CCF0E1F1FFFF1A9E
:1017700081C4B0E1EFFFFF0A04009DE41EFF2FE1EA
:1017800000C0A0E10100A0E10C10A0E1FFFFFFEA12
:101790000F402DE9E0FFFFEB000050E30000704335
:1017A0000F40BDE81EFF2FE108E02DE5F7FFFFEB3E
:1017B0000100A0030000A01308E09DE41EFF2FE13C
:1017C00008E02DE5F1FFFFEB0100A0330000A023AE
:1017D00008E09DE41EFF2FE108E02DE5EBFFFFEBA5
:1017E0000100A0930000A08308E09DE41EFF2FE10C
:1017F00008E02DE5E1FFFFEB0100A0930000A083CE
:1018000008E09DE41EFF2FE108E02DE5DBFFFFEB84
:101810000100A0330000A02308E09DE41EFF2FE19B
:101820008020B0E10800002A7F0452E30600003A5D
:101830009E30A0E3222C53E00500004A0034A0E1D2
:10184000023183E33302A0E11EFF2FE10000A0E399
:101850001EFF2FE1610072E30100001A8024B0E155
:101860000100001A0000E0E31EFF2FE10000A0E3EA
:101870001EFF2FE11C10A0E3010850E32008A02167
:1018800010104122010C50E32004A0210810412235
:10189000100050E32002A0210410412208208FE212
:1018A0000000D2E7010080E01EFF2FE104030202E6
:1018B000010101010000000000000000000053E3EE
:1018C000000052030700001A000051E30211A0B308
:1018D0000000A0B3020000BA000050030211E013A0
:1018E0000000E013C09300EA08D04DE200602DE94B
:1018F000000051E3060000BA000053E3110000BAF3
:10190000AD9300EB04E09DE508D08DE20C00BDE84E
:101910001EFF2FE1000070E28110C1E0000053E3E0
:10192000110000BAA49300EB04E09DE508D08DE21D
:101930000C00BDE8000070E28110C1E0002072E2FE
:101940008330C3E01EFF2FE1002072E28330C3E04A
:10195000999300EB04E09DE508D08DE20C00BDE812
:10196000000070E28110C1E01EFF2FE1002072E252
:101970008330C3E0909300EB04E09DE508D08DE256
:101980000C00BDE8002072E28330C3E01EFF2FE1AF
:10199000000053E3000052030400001A000051E36A
:1019A000000050030010E0130000E0138E9300EAE3
:1019B00008D04DE200602DE97F9300EB04E09DE547
:1019C00008D08DE20C00BDE81EFF2FE1F0B50F003E
:1019D0000100C646844615040004140C000C090CD2
:1019E0002D0C2E0046434D43604361434019340C97
:1019F000241800B5A54203D9802040028046414406
:101A0000250C6D18614659437A4330044919240462
:101A1000000C2018891804BC9046F0BC04BC104788
:101A2000094A43081340C01A0300084A80081040BE
:101A300013401B181809C018054B03401802C018A2
:101A40000304C018000E70475555555533333333D2
:101A50000F0F0F0FF0B557464E464546DE46E0B530
:101A600004000D009246994683B08B4230D82DD0A9
:101A70004946504624F06EFE29000600200024F05E
:101A800069FE331A9846203B9B4635D45A46534646
:101A9000934042461F00534693401E00AF423CD83D
:101AA000AF4200D17AE05B46A41BBD41002B00DAB7
:101AB00077E0002200230092019301235A469340CD
:101AC000019301234246934000932AE08242CFD9FA
:101AD00000220023009201930C9B002B01D01C607C
:101AE0005D600098019903B03CBC90469946A246BF
:101AF000AB46F0BC04BC1047424620239B1A52461A
:101B0000DA40414613004A468A40170042461F43C6
:101B1000534693401E00AF42C2D9002200230092D8
:101B200001934346002BD7D0FB0772081A43464661
:101B30007B080EE0AB4201D1A2420CD8A41A9D4111
:101B4000012024196D410021013E24184D41002E31
:101B500006D0AB42EED9013E24196D41002EF8D1DA
:101B60005B460098019900196941002B24DB2B008A
:101B70005A464446D3402A00E2401C005B4615000A
:101B8000002B2ADB26009E40330026004746BE403D
:101B90003200801A9941009001919DE7A342BCD880
:101BA00081E74246202300219B1A002200910192E6
:101BB0000122DA40019284E7424620239B1A2A0040
:101BC00046469A402300F340444613432A00E2402D
:101BD0001C005B461500002BD4DA42462F00202360
:101BE000260097409B1ADE403B003343CDE7C046BA
:101BF00010402DE9000051E30200001A1CFFFFEB2A
:101C0000200080E2010000EA0100A0E118FFFFEBE4
:101C10001040BDE81EFF2FE102780B78002A03D0A8
:101C2000013001319A42F7D0D01A70470023C25CCC
:101C30000133002AFBD1581E7047000003B47146DF
:101C4000490840004900095E49008E4403BC7047C2
:101C500000C0E0E3020000EA01C0A0E3000000EAE7
:101C600001C0A0E304C02DE581C0A0E1CCCAF0E131
:101C700083C0A0E1CCCAF0110E00000A04D08DE2AE
:101C800081C090E183C09201030031110200300154
:101C90000000A0031EFF2F01000070E3030031E1EC
:101CA0000300515102005001C30FA021C30FE031C6
:101CB000010080E31EFF2FE181C0A0E1CCCAF0E16A
:101CC0000100001A01C690E10400001A83C0A0E1DF
:101CD000CCCAF0E1E8FFFF1A03C692E1E6FFFF0A73
:101CE00004009DE41EFF2FE100C0A0E10200A0E17E
:101CF0000C20A0E101C0A0E10310A0E10C30A0E1A4
:101D0000FFFFFFEA01402DE9D4FFFFEB000050E3A5
:101D1000000070430140BDE81EFF2FE108E02DE503
:101D2000F7FFFFEB0100A0030000A01308E09DE413
:101D30001EFF2FE108E02DE5F1FFFFEB0100A033CE
:101D40000000A02308E09DE41EFF2FE108E02DE540
:101D5000EBFFFFEB0100A0930000A08308E09DE4EF
:101D60001EFF2FE108E02DE5DEFFFFEB0100A09351
:101D70000000A08308E09DE41EFF2FE108E02DE5B0
:101D8000D8FFFFEB0100A0330000A02308E09DE492
:101D90001EFF2FE181C0A0E1CCCAF0E10100001AD2
:101DA00001C690E10600001A83C0A0E1CCCAF0E1B0
:101DB0000100001A03C692E10100001A0000A0E32E
:101DC0001EFF2FE10100A0E31EFF2FE18120A0E113
:101DD000022692E20C00002A0900005A3E3EE0E38F
:101DE000C22A53E00A00009A8135A0E1023183E360
:101DF000A03A83E1020111E33302A0E10000601286
:101E00001EFF2FE10000A0E31EFF2FE1010690E17D
:101E10000200001A020111E20201E0031EFF2FE19D
:101E20000000A0E31EFF2FE170470000004870474C
:101E3000C02709000120704710B5040008220021C6
:101E400020F0D8FD024B2380024B638010BDC046BA
:101E500000C0FFFFFFCFFFFF9422F8B51D4C5200DA
:101E60000021200020F0C6FD2100012003F05EFDCE
:101E700023000122F2331A700223220026002700D9
:101E8000FF332381144BFC36FE37FA323380FB815B
:101E90001380124B124A33622300E0331A6023008E
:101EA00000251049E43321620F49626171600F49D6
:101EB000E834B1600E497D8479811D603D832560E1
:101EC0000C490D481DF03BF82A007989308800F054
:101ED0005DFBF8BD782F4000CCCCFFFFCCCC0000E0
:101EE000CCCCCCCC204E204EFFFF204E2003204EE9
:101EF000204E0000396C0500606A0500FA2170B5BB
:101F0000144C8900230088421AD2220058331D88BD
:101F100023005232128850331A8096218900884259
:101F200014D92300543319880B4BC0184843C821D7
:101F3000490024F0E7FC0004000C5634208070BDFA
:101F400054331D8824F002FC0800E6E7081A6843B1
:101F5000EFE7C046A0304000A8FDFFFF10B51FF01E
:101F60006FFF064CE36D834206D9181AFFF7C6FFD0
:101F70000A2120001FF0E8FF10BDC046A03040003D
:101F8000F8B5354D06002A780F00344C002A05D1EB
:101F9000200033491FF0AEFF01232B70314D2B7A07
:101FA000012B2DD1AB8A002B22D022005632138078
:101FB0002200543213802B8C002B00D12A4B22009C
:101FC000503221001380220058315232002F12D09B
:101FD000264B0B80244B13801FF032FFFA22920015
:101FE00072431218E2650A2120001FF0ADFFF8BD10
:101FF0001F4B6365DFE72000563000880880EAE762
:102000002B002200FC331B885832002B22D0002FDB
:1020100020D1138022005432138023000022563333
:102020001A80FE356B89934200D10F4B220050324B
:102030001380002F00D00C4B2200523213801FF06F
:10204000FFFEFA22920072431300913BFF3B1B18E4
:10205000E365C8E7054BDCE732314000A0304000C3
:102060005D1F0300782F4000204E0000CCCCFFFF06
:10207000CCCCCCCCF0B587B00F0001900A2807D8A3
:10208000FEF740FA24243A69676767676767770055
:102090000223019A9A431C2A5BD10B00F2331E786B
:1020A0000C7A00F06DFA0500A64200D183E023000F
:1020B00032008F498F481CF042FF002C00D06CE0AA
:1020C00022002100200000F061FA74E024F014FBEB
:1020D000894D8A4C01002B002200894820F02CF801
:1020E0002900200020F028F8864820F025F801215A
:1020F0000520FFF745FF2CE00222834BFF321A81B7
:10210000824A01205A61824A82491A6200221A8553
:10211000DA625A631A00FC3211807F4AFE335A8118
:102120007E4B987099811A837D497E481CF007FF89
:1021300024F0E2FA704D7C4C01002B002200704824
:102140001FF0FAFF290020001FF0F6FF6D481FF076
:10215000F3FF07B0F0BD754975481FF060FD02F050
:10216000B6FD0028F5D00823724A11780B4313708E
:10217000EFE724F0C1FA604D6F4C01002B00220004
:102180005F481FF0D9FF290020001FF0D5FF5D48F0
:102190001FF0D2FF00210320ABE7012D00D8A2E001
:1021A000022D08D13B00E8331A88043B1988043B10
:1021B000188800F077FA3B00FE335989DA890391D9
:1021C0001B8A3D8C0493BB8BBE8C02939A4204D134
:1021D000A94202D1049BB34216D0584C029B210065
:1021E00057481CF0ACFE2B002100039A55481CF008
:1021F000A6FE2100049A544833001CF0A0FE3200D1
:102200002900029800F0C2F93C00FE34238CE28BD6
:102210000493638C05933B00E0331B8802933B00DF
:10222000E4331E8804331B880393029B9A4206D131
:10223000049BB34203D1059B03998B4216D0434DB7
:10224000029B290042481CF07AFE33002900049AC0
:1022500040481CF074FE2900059A3F48039B1CF07F
:102260006EFE3000029A039900F01CFA3E00FC3624
:102270003288BD8AAA4209D0384939482B001CF05F
:102280005EFE2800BA8C398C00F080F9019B1E2B71
:1022900000D05EE7BA8A14333280397824484B4341
:1022A0001E49CB1839009A813A7AF2310A709A7035
:1022B000BA8B0A39E2819A833A8C62811A83BA8C8A
:1022C0002282DA833A00E0321288E2839A853A0069
:1022D000E43212882284DA850A88224962841A86C6
:1022E0001FF0CEFC35E7BA8C398CB88BEBE6C046D4
:1022F0005C6C0500D66A0500956C0500746A0500E3
:102300008C6A050010740500782F4000CCCCCCCC32
:10231000204E204ECCCCFFFF204E0000003140006C
:102320004A6C0500976A0500A16A0500291E030092
:1023300034314000D05B4000BE6A05007B6C050074
:10234000F86A0500236B05004E6B0500886C0500DC
:10235000726B0500A46B0500CA6B05006F6C05006D
:10236000F06B05008813000070B500F0BFF805F0B1
:10237000DEFF24F0C1F9084D084C2B0022000100BB
:1023800007481FF0D9FE290020001FF0D5FE0548A0
:102390001FF0D2FE002070BD166C05002B6C0500EE
:1023A0008C6A050010740500F8B5061C0D1C101C85
:1023B0000021141C24F086FAFE21890500281ED075
:1023C000201C24F03DF9041C2449201C24F0E0F9D1
:1023D000FE218905071C24F075FA00281AD0311C4B
:1023E000281C24F039F91D4924F0D2F9211C24F0CD
:1023F000CFF9311C24F024F9051C281CF8BD201C41
:1024000024F002FA0028DFD0FE21201C890524F0E8
:1024100023F9D8E7211C201C24F012F9FE2189059C
:1024200024F050FA0028E8D10D49201C24F0B0F91E
:102430008021C90524F046FA00280CD0311C281C44
:1024400024F00AF9041C8120391CC00524F004F989
:10245000011C201CCBE7351CCFE7C0460000C04064
:1024600000004040F7B50500194C028821001948CA
:102470001CF065FD21006A8817481CF060FD2100F2
:10248000AA8816481CF05BFD00246300EF5AFA236B
:10249000F8430004000C9B0143431149180024F049
:1024A00031FAFA239B01220006000E4901900093A5
:1024B0000D483B001CF043FDFA2120063200000EBF
:1024C0008901013400F07EFF032CDED1F7BDC04648
:1024D000186E0500A06C0500B56C0500CA6C0500FF
:1024E000FFFF0000096E0500DF6C0500F0B51F4C12
:1024F00091B021003C22FA2601A820F05BFA0027C7
:102500006A460023B60001A813710297039600F0F3
:1025100011FF01A800F048FF6A46012306A81376C0
:102520000797089600F006FF06A800F03DFF02237B
:102530000BAD28002B700C970D9600F0FBFE2800C9
:1025400000F032FF00233C342370FFF785FC02F0DB
:10255000BEFB002803D0064B9B78002B03D0002144
:102560000120FFF70DFD11B0F0BDC0464C31400019
:1025700000314000014B3C33187070474C31400033
:10258000014B3C33187870474C314000F7B50C00D4
:102590001700364E02003100050035481CF0CFFC14
:1025A0002200310033481CF0CAFC3A0031003248A6
:1025B0001CF0C5FC314B9C4204D9310030481CF062
:1025C000BEFCF7BD2F4BE01824F0E6F82E4B00229E
:1025D00024F0C8F822F096FE24F066F8C123040423
:1025E000240C9B009C4200D9284CFF26220028493D
:1025F00028481CF0A4FC284BA400E458200C3040D0
:1026000024F0CAF80022254B24F0ACF80022244B19
:1026100024F088F924F048F86B4668431880200AB3
:10262000304024F0B9F800221C4B24F09BF8002223
:102630001B4B24F077F924F037F86B466843588039
:102640002000304024F0A8F80022144B24F08AF82F
:102650000022134B24F066F924F026F86B4645431C
:1026600068469D80FFF7FEFEABE7C046276E05007B
:10267000236D05003E6D0500576D0500204E0000DE
:102680006D6D0500E0FCFFFF0000594003030000F2
:10269000F56D0500896D0500506E050000E06F4086
:1026A000E0FFEF40F0B50C0016005F4F020089B06C
:1026B000390005005D481CF042FC220039005C48EE
:1026C0001CF03DFC320039005A481CF038FC002C4C
:1026D00000D1A5E0280024F011F9574924F03EF874
:1026E0000390200024F00AF9534924F037F8051C20
:1026F000300024F003F9504924F030F8041C24F091
:10270000B9F80F00FC2106008905201C24F0DAF836
:10271000002800D176E0281C24F0ACF80022474BBA
:1027200024F06AF832003B0024F0FCF823F0E8FFC4
:10273000041C32003B003000390024F05DF8060034
:10274000201C0F0024F096F802000B003000390026
:1027500024F098F823F0D4FF051C039824F08AF89D
:10276000374B384A0490059124F046F823F0C8FF0F
:10277000211C021C281CFFF717FE2F4924F008F823
:1027800024F078F822F030FD23F08EFF039A211C0C
:102790000604281CFFF708FE274923F0F9FF24F060
:1027A00069F822F021FD23F07FFF254B254A07041D
:1027B0000498059924F066F823F0A2FF211C021C5E
:1027C000281CFFF7F1FD1C4923F0E2FF24F052F82A
:1027D00022F00AFD23F068FF0404360C3F0C240CA1
:1027E0003B0032001049009417481CF0A8FB7642C9
:1027F00006A87F426442068047808480FFF732FE4D
:1028000009B0F0BD211C281C23F01AFF211C0490E4
:10281000281C23F0BDFF011C049823F01DFF87E74F
:1028200034003700DCE7C0463B6E05009A6D0500BA
:10283000AB6D0500C36D050000FF7F470000F03F52
:102840005555D53F55555555DA6D05007047000073
:1028500010B50A490A481CF072FB1AF077FFFFF71F
:10286000F5FF084A084909481CF069FB084C20009C
:1028700000F0ECFF200000F0C7FF10BD337405002E
:10288000B0730500B6730500226C0500C273050025
:10289000301A400010B5012488B0164916481CF0C3
:1028A0004EFB24F03BF815481CF049FB1BF0F2F9F5
:1028B00013481CF044FB07AA1249134807941BF065
:1028C000FBF812481CF03BFB114B00220493A023A1
:1028D0005B0003930F4B1049029300230594009271
:1028E00001930E48202319F0F3F823F0EFFE08B00F
:1028F00010BDC0463C740500E2730500EA73050094
:10290000FB7305000300220E137405001774050005
:10291000512803008C3140002B7405009036400094
:10292000F8B5040019F0ACF9030073331A78416864
:10293000230015481CF003FB1AF0FEF8002018F0E5
:1029400091F919F09DF9046919F09AF94569AD00FA
:1029500065196C4600260327A54208D80B481CF0D1
:10296000EEFAD5210A4B0B4A0B481FF0C9FD3E4237
:1029700003D1210009481CF0E2FA02CC08481CF0FF
:10298000DEFA0136E8E7C04646740500107405001B
:10299000B49905009D7405007A7405006C740500F7
:1029A0007474050010B50449044817F023FF044966
:1029B000044817F01FFF10BD4CBA4000782F4000AC
:1029C000492F4000001840006846704710B5024883
:1029D0001CF0B5FA10BDC046AA740500034810B536
:1029E0004368002B01D023F0F3FE10BD08374000F0
:1029F000044810B54368002B03D00121494223F05D
:102A0000CFFE10BD0837400014235843044B1B88E9
:102A1000082B02D1034BC0187047034BFBE7C0469D
:102A200080210000AC720500A871050073B506286E
:102A300006D180235B01994202D3234B0130C91890
:102A400014235843214B1B88082B18D1204BC01846
:102A5000C4688B18A3420FD884681E4B0919541EF2
:102A600064181D4A0D0B240B2D0324031343AB42A2
:102A700007D31A481CF063FA0120404212E0184BB9
:102A8000E5E70022174801A91AF0AEFE06000095FE
:102A9000009B1548A34206D900F0C8FC30001AF08C
:102AA00053FF002076BD00F0C1FCFFF7A1FF6A468E
:102AB0000E4930001AF0E6FFFFF790FF8022009BDE
:102AC00052019B180093E3E700F0FFFF8021000014
:102AD000AC720500FF0F0000A8CE0500D074050001
:102AE000A8710500F274050000B140000F00240E2B
:102AF000F0B585B00C001E000192062808D1802296
:102B00000B685201934203D3224A01309B180B6099
:102B100014235843204B1B88082B18D11F4BC01877
:102B2000002C11D0019B002B0ED02368C1689A198C
:102B30008A4209D882689B180093009A184B9A42DF
:102B400007D818481CF0FBF9012040421FE0164B43
:102B5000E5E7002203A915481AF046FE0500144FC8
:102B6000380000F063FCFFF743FF009B320001993F
:102B700028001AF05BFFFFF731FF380000F056FC29
:102B800028001AF0E1FE002023689B19236005B09D
:102B9000F0BDC04600F0FFFF80210000AC720500D0
:102BA000A8CE0500F8740500A8710500F2740500B0
:102BB00000B14000F0B585B00C001E000092062860
:102BC00008D180220B685201934203D31E4A013080
:102BD0009B180B60142358431C4B1B88082B2ED1C9
:102BE0001B4BC018002C2CD0009B002B29D0236835
:102BF000C1689A198A4224D8826803A99B1815488B
:102C0000002201931AF0F0FD0500134F380000F088
:102C10000DFCFFF7EDFE019B3200009928001AF031
:102C2000D9FEFFF7DBFE380000F000FC28001AF0A8
:102C30008BFE002023689B19236005B0F0BD074B75
:102C4000CFE701204042F8E700F0FFFF80210000BD
:102C5000AC720500F274050000B14000A8710500D7
:102C6000032307B500226946084801931AF0BCFD0A
:102C7000431C05D1C722064906481CF060F9FEE74F
:102C8000054901AA1AF0FEFE00200EBDF2740500EF
:102C9000227505001A7505001100240E022307B5E0
:102CA00000226946084801931AF09EFD431C05D195
:102CB000D422064906481CF042F9FEE7054901AA5C
:102CC0001AF0E0FE00200EBDF27405003A75050012
:102CD0001A7505001100240EF0B591B0394807AC03
:102CE0001AF018FC38490022200018F0B1FC011E2F
:102CF00006D036481CF023F90C20404211B0F0BD3C
:102D00000A200021324B334A334D1A61334A98600E
:102D1000D96028001A605C6023F0AAFC002801D169
:102D200001236B602E4B0125049396230026002778
:102D30009B0003932B4B00222B4905950293009691
:102D400001971023294818F0C3FE294B0022049351
:102D5000E1239B000393274B274905950293009697
:102D600001971223254818F0B3FE254B05950493CF
:102D700096239B000393234B009601970293144ADA
:102D800010232149154818F0A3FE051E14D1012275
:102D90005242D317200018F0CBFC050000270C4B43
:102DA00020005F6018F07AFC3800BD42A6D01748BA
:102DB0001CF0C5F80120A0E7010015481CF0BFF881
:102DC000ECE7C046152E03004F7505005D75050044
:102DD000D8414000905A4000F04140001037400078
:102DE000C9310300F84140008175050000384000FA
:102DF0006D300300584B4000937505008837400044
:102E000075D6040078384000A0750500D27505001D
:102E1000AF750500F7B50400FF20002C76D063796C
:102E2000042B00D076E0A37A0F2B00D96FE00D2B96
:102E300000D86FE0484E494D33880F2B19D923F045
:102E40009DFC009023F096FC019028001CF0FFF9F7
:102E500033880700013B3380009B002B01D123F016
:102E60003DFC019B002B01D123F060FD380017F0E1
:102E700005FC37003A4B0093E379A0791B0203432A
:102E8000207A00040343607A000618430F3017F0DD
:102E9000B9FB0422002106001FF0ACFD00233371B2
:102EA0007371B371F371637930003372E379A2798E
:102EB0001B021343227A0D3012041343627A120666
:102EC0001A43110AB172110CF172110E3173210003
:102ED00072720A311FF06EFD23F050FC040023F0E3
:102EE00049FC3100019028001CF0A6F93B88013311
:102EF0003B80002C01D123F0F1FB019B002B01D181
:102F000023F014FD009818F0FFFB0020FEBD132BEA
:102F100000D18FE7134E144D3388232B19D923F09A
:102F20002DFC009023F026FC019028001CF08FF966
:102F300033880700013B3380009B002B01D123F035
:102F4000CDFB019B002B01D123F0F0FC380017F0E2
:102F500095FB3700054B8EE7C25940008C59400065
:102F600068594000C0594000B85940009459400089
:102F7000034810B54368002B01D023F029FC10BD95
:102F8000F041400070B5060031484368002B03D083
:102F90000121494223F004FC002E08D12D492E487E
:102FA0001BF0CDFFFFF7E4FF0120404270BD8220FF
:102FB000400017F027FB0400B289B1680A301FF007
:102FC000F9FCB1890A0AE271002222720A0E6272C9
:102FD0000322A171F389F318133393431A78002A5B
:102FE00005D0022A28D01D481BF0A9FF07E0237B4B
:102FF0000333994205D0174919481BF0A0FF194D1A
:1030000002E001236371002530001CF07BFA002DE3
:103010001BD120001AF08AFA051E04D002000D49C7
:1030200011481BF08CFF200017F028FB002DB9D1B0
:10303000FFF79EFF2800B9E7637B207B1B02034359
:1030400004339942D7D16271DDE7064DEBE7C04604
:10305000F04140009F760500EA75050023760500E3
:10306000FF750500FFFF000037760500F7B5514DED
:1030700028001CF0DDF8504F002238004F4918F0AE
:10308000E7FA00234E4A13802B68002B06D1012259
:103090005242D317380018F04BFBF5E723F06EFBD4
:1030A000019023F067FB060028001CF0D0F8444B89
:1030B00004001B88002B02D0414A013B1380019B76
:1030C000002B01D123F00AFB002E01D123F02EFCAE
:1030D0000026637920791B020343A079000403438F
:1030E000E0790006184332D02100A37A627A1B02ED
:1030F0001343E27A0D3112041343227B0830120687
:103100001A431CF030FA60792379267A0002A179FB
:10311000E2791843042E41D1090408431206024300
:10312000D389D218032313329A43023B1370637975
:1031300020791B020343A07900040343E0790006D1
:10314000184309F0A5F8200017F098FA9CE7237AB5
:10315000042B1ED1637B0E3B012B1AD80AF00EF90B
:10316000030A63712071030C6279A371237912023F
:103170001A43A379000E1B04E0711A43E3791B067E
:103180001343A6D1002EA4D10E481BF0D8FE013661
:103190009FE7002101200AF0DFF8E1E70B041206A7
:1031A00003431343DA899B180322133393431A70A2
:1031B000BDE7C046B8594000945940005376050019
:1031C000C059400060760500F7B5514D28001CF04D
:1031D0002FF8504F002238004F4918F039FA0023D9
:1031E0004E4A13802B68002B06D101225242D3177E
:1031F000380018F09DFAF5E723F0C0FA019023F0AB
:10320000B9FA060028001CF022F8444B04001B8881
:10321000002B02D0414A013B1380019B002B01D1BE
:1032200023F05CFA002E01D123F080FB00266379A5
:1032300020791B020343A07900040343E0790006D0
:10324000184332D02100A37A627A1B021343E27A38
:103250000D3112041343227B083012061A431CF06E
:1032600082F960792379267A0002A179E2791843FC
:10327000042E41D10904084312060243D389D2180F
:10328000032313329A43023B1370637920791B02A4
:103290000343A07900040343E0790006184309F0D2
:1032A00065FD200017F0EAF99CE7237A042B1ED174
:1032B000637B0E3B012B1AD80AF060F8030A637196
:1032C0002071030C6279A371237912021A43A37946
:1032D000000E1B04E0711A43E3791B061343A6D1C9
:1032E000002EA4D10E481BF02AFE01369FE70021D4
:1032F00001200AF031F8E1E70B04120603431343FF
:10330000DA899B180322133393431A70BDE7C04632
:103310008C594000685940007B760500C259400036
:103320006076050010B5024809F016FE002010BDB9
:103330004C1A40001F2270B5037886B001AC237090
:103340006378816893431A0004231343637003690D
:1033500005002361FA291DD90122104860266378EF
:103360005201B3431343637023F0CCFA0004000C02
:10337000A06023F0C3FA696823F00AFA23F032FA56
:103380000004000CE0602200054906481AF094FB96
:1033900006B070BDFA200022C001DFE70024F4006F
:1033A0000600230EAF76050007B5037803490448ED
:1033B00001AA01931AF080FB0EBDC0460100230E46
:1033C000AF7605007FB501AB1870039104920349F5
:1033D0001A0003481AF070FB07B000BD0800230E66
:1033E000AF7605007047704710B5097801200906CF
:1033F00009161BF0BDFD002010BD000013B507230A
:10340000040001AA0549064801931AF055FB054935
:10341000221D05481AF050FB002016BD0E00220E9A
:10342000137405000200330EB376050010B50022B8
:10343000024903481AF040FB10BDC0460300330E9A
:10344000B3760500002210B511000320FFF708FC39
:1034500010BD002210B511000320FFF71FFC10BDA6
:10346000F0B5032087B00E0014001D00FFF7CCFA62
:10347000C3683419A34203D20120404207B0F0BD13
:103480000096009B9C4201D10020F7E71A05160D1B
:10349000002A0DD102AF01933A001023032001A9A5
:1034A000FFF788FBBB5DFF2B16D10136102EF9D13B
:1034B0008022009B52011E05360DE31A961B9E4288
:1034C00000D91E0033002A0069460320FFF710FBD5
:1034D0000028D1D1AD19D4E78022009952010320F0
:1034E000FFF7A4FAE4E7012070470000718C00EABE
:1034F00002C0A0E10320A0E10130A0E330402DE9AB
:103500000040A0E30050A0E31CD04DE210308DE558
:1035100028309DE5F040CDE12331A0E108308DE574
:103520000CC08DE52C30DDE5598C00EB1CD08DE214
:103530003080BDE83C309FE500C093E50320A0E16A
:1035400002001CE30400000A01301CE20110A00389
:103550000300000A1500E0E31EFF2FE10130A0E3A5
:103560000210A0E30C1081E1003080E5001082E53C
:103570000000A0E31EFF2FE1C459400070402DE978
:103580000150A0E10040A0E1E98C00EB0520A0E1A2
:103590000410A0E1C18C00EB7080BDE813402DE960
:1035A0000030A0E30040A0E104308DE5E08C00EBAA
:1035B0000410A0E104208DE2C88C00EB04009DE51E
:1035C00008D08DE21080BDE8000050E31100000A31
:1035D000010071E310402DE90020E0030030E0031A
:1035E000004090E50400000A0100A0E10010A0E303
:1035F000638C00EB0020A0E10130A0E10400A0E119
:10360000A38C00EB14309FE5000050E30300501141
:103610000000A0031080BDE81500E0E31EFF2FE1CD
:1036200085030000000050E30700000A10402DE968
:10363000000090E52C8C00EB14309FE5000050E377
:10364000030050110000A0031080BDE81500E0E366
:103650001EFF2FE18503000070402DE9005050E26D
:103660000540A0010F00000A100000BA020185E326
:103670000E60A0E17B8C00EB3C309FE50040A0E1B8
:103680000010A0E10620A0E1000093E5208C00EBF3
:10369000000054E30300000A0520A0E10010A0E3AD
:1036A0000400A0E11D8C00EB0400A0E17080BDE8E7
:1036B0006C8C00EB0040A0E1F4FFFFEAD8A54000CD
:1036C00070402DE9004050E20900000A0A0000BAEB
:1036D000020184E30E50A0E1628C00EB20309FE5F4
:1036E0000040A0E10010A0E10520A0E1000093E56A
:1036F000078C00EB0400A0E17080BDE87040BDE8DD
:10370000588C00EAD8A54000003051E2000000AA21
:10371000518C00EA70402DE9021183E30E50A0E1C4
:103720004D8C00EB0040A0E114309FE50010A0E1BB
:103730000520A0E1000093E5F58B00EB0400A0E17B
:103740007080BDE8D8A540000C309FE50120A0E1C5
:103750000010A0E1000093E5ED8B00EAD8A5400041
:10376000000050E31EFF2F01C48B00EA70402DE9DA
:10377000006050E20C00000A2800A0E3CFFFFFEB3E
:10378000005050E20A00000A2C109FE52B8C00EB41
:10379000004050E2005086050100000A0500A0E14B
:1037A000EEFFFFEB0400A0E17080BDE81500E0E350
:1037B0007080BDE80B00E0E37080BDE8B7760500DF
:1037C00010402DE9004050E21080BD08000094E553
:1037D000178C00EB000094E5E0FFFFEB0030A0E366
:1037E000003084E51080BDE80C8C00EA10402DE923
:1037F000C01FA0E1E28B00EB1040BDE8F58B00EAB2
:10380000318C00EAE78B00EA70B504000C4D0D48DE
:1038100029001EF091FC1EF0B9FC15F075FF1EF09A
:10382000ADFC19F0D1FC15F0EBFFFFF7CFF8290044
:1038300005481EF081FC03CCFEF796FD002070BD0C
:10384000CA760500E2730500BB7605007047704735
:10385000F0B504000D009BB0212C41D82000FCF7EE
:103860005BFE2200350041004F002C012F013E017C
:1038700041014D015D02510161016F013F003F00B7
:103880003F003F003F00AD013F00B1013F00560146
:10389000B5016A01C301E701FB010B02F601160243
:1038A0004D024F02590229000020FEF7E3FB0022DF
:1038B000D44B1A7011F018F902F0C8F91EF087FB0A
:1038C000032011F059F904263400C5E711F04EF930
:1038D000002801D001F09CFF1EF079FB00F00AFFE8
:1038E0002600F3E029000220FEF7C4FB00F014FFDD
:1038F0000022C44B1A7011F0F7F802F0A7F9DFE7C5
:1039000001F0F5F91620684402F08BF94542454173
:1039100006A800F0BDFE002801D102231D43BA4EC7
:10392000300002F045F9071E4ED11C203100102254
:10393000483105430AA81FF03DF80822390014A8B1
:103940001FF058F831001022B13116A81FF032F8DC
:10395000162239000EA81FF04DF831003D2010222C
:103960005F3168441FF026F80AA802F029F914A86C
:1039700002F034F90EA802F03FF9012000F038FE01
:103980009C223000920039001FF034F832000123ED
:103990009C325B425836138033801F2D2AD022F090
:1039A000ABFE9A4D01002A0099481EF0C5FB280085
:1039B0001EF0C2FB97481EF0BFFB02F047F922F051
:1039C00095FF2600944D81E00AA802F000F9002836
:1039D00001D104231D4314A802F007F9002801D1E6
:1039E00008231D430EA802F00EF9002849D110301B
:1039F0000543D2E722F080FE884D01002A0084486A
:103A00001EF09AFB28001EF097FB82481EF094FBE4
:103A100014AB0AA819889A78029016206844008886
:103A2000159B0190069807AD009016A810F0E4FFD2
:103A30000EAA13791088591E8B4151883D226A4481
:103A40000FF0A6F801F0E2FC0A22002128001EF087
:103A5000D1FF280002F0F3F8AB78FF2B02D1280049
:103A60000FF09EF800F040FE01260028AAD1802326
:103A70006B4A5B4211780B436749137001F09AFE61
:103A80009FE7002D8BD122F037FE664D01002A0002
:103A90005F481EF051FB28001EF04EFB5D481EF0F3
:103AA0004BFB00F021FE012600288BD101F0AEFC7B
:103AB000032011F061F8033684E701F02BFE0FE7D5
:103AC00001F042FE032011F071F8062629002000C3
:103AD000FEF7D0FAB44200D0F6E61BB0F0BD01F01C
:103AE0003BFEFDE6504B26001A78002AEED101324B
:103AF0001A7001F029FE01F03BFEE7E7280002F012
:103B000089F8EDE601223F4B16261A70DEE70723FF
:103B1000FA20434A800011780B432900137001F00A
:103B200049FEDDE60023404A1370364A137010F058
:103B3000DBFF02F08BF8032011F01EF80426C5E726
:103B4000394B1A78002A30D000221A7001F02AFE70
:103B50002F780B26002FB9D12B4D102229000AA84F
:103B600048311EF027FF0822390014A81EF042FF3A
:103B700029001022B13116A81EF01CFF16223900B0
:103B80000EA81EF037FF29003D2010225F31684447
:103B90001EF010FF0AA802F013F814A802F01EF895
:103BA0000EA802F029F8013E0CE72B782600002B26
:103BB00000D08BE7144801F0F3FF87E71B4801F0C2
:103BC000E1FF8DE6280002F033F889E62B8D1E26F2
:103BD000002B00D17AE72B0028331B78053E002B01
:103BE00000D073E7023671E7280001F0AFFC2B002C
:103BF0000521280028331B78403059431EF0A4F9D2
:103C00006EE6C046C859400050224000DA760500F2
:103C10008C6A050010740500782F4000E6760500D8
:103C2000D05B4000F3760500C9594000589D400024
:103C30001EF006F92B00002228331A7001331B787E
:103C4000934204D06B6B1B26984200D23EE72800BB
:103C500001F0A9FC1E2639E71EF0F2F80700280043
:103C600001F074FC6B6B1D260A3BBB4200D82DE7AC
:103C700028000A219030C1E7280001F09BFC2600B3
:103C8000002800D022E72B00293318701EE76B7A3A
:103C90002A7A9A4200D02B72EB8AAA8A9A4200D0E2
:103CA000AB82EB8BAA8B9A4200D0AB836B8C2A8CB5
:103CB0009A4200D02B84EB8CAA8C9A4200D0AB8421
:103CC0002B00E2331A88023B1988914200D01A80F7
:103CD0002B00E6331A88023B1988914200D01A80E3
:103CE0002B00EA331A88023B1988914200D01A80CF
:103CF00010F03CFF2600002800D1E7E62026E5E68C
:103D0000074B26001B78002B00D1DFE6280001F0CE
:103D1000A5FDDBE6280001F07DFDE1E50B26D5E6FB
:103D2000D05B4000002313B502000193040004336C
:103D3000082001A9FEF73EFF02000920002A08D151
:103D400023680438190E012903D110001B021B0A35
:103D5000236016BD042373B580260093002304005E
:103D60000380760101AD04232A0069460820FEF78E
:103D700021FF031E1AD1E95C00290DD00023012088
:103D80000A001A41024202D1228801322280013304
:103D9000082BF5D1002076BD22880133083222801D
:103DA000042BE8D1009BB342DCD3F3E70920F2E710
:103DB000002337B5040000930193053803330A004C
:103DC000984229D8FCF79EFB021B1F22134B01933C
:103DD000134B144919800421596000212000FEF77B
:103DE00025FE0323051E17D101336946200001AAD1
:103DF000FEF77EFE2B0000280ED00A330CE00A4BA3
:103E000001930A4BE5E70A4B0193E6E700210820FE
:103E1000FEF70CFE03061B0E18003EBDA801A5A56B
:103E2000DC594000FC0F0000A802A5A5E4594000A1
:103E3000A8FFAFAF4368826810B50400934201D376
:103E4000062010BD011D22000220082320560C323E
:103E5000FEF7B0FE03000920002BF2D16268083A99
:103E60006260227BFF2AEBD01800EAE7052370B5D9
:103E700086B001ACA370013B6360802300212C4E0F
:103E80002C4D5B01082204A835802180A3601EF020
:103E9000B1FD2000FFF7CEFF00281BD1237B208A35
:103EA000617B012B04D13288083A121A521A3280EF
:103EB000636808331B185B186360EAE73388AB421A
:103EC00001D9002333806368AB4200D873600020BF
:103ED00006B070BD3388AB4201D9002333806368DC
:103EE000AB4200D873600623A370023B636080235B
:103EF0000021114E5B01082204A835802180A360B7
:103F00001EF078FD2000FFF795FF0028D6D1237B17
:103F1000208A617B012B04D13288083A121A521A86
:103F20003280636808331B185B186360EAE7C04699
:103F3000DC594000FC0F0000E459400010B50400BB
:103F40002000FFF777FF237B0200012B03D1E189DB
:103F50002388994209D06368218A08335B18617B02
:103F60005B186360002AEBD010BD0020FCE7000066
:103F7000F0B5002787B004AE0D00019204000822BE
:103F8000390030000093029703971EF033FD0220A2
:103F90002856431F1B061B0E022B3BD8A968FFF7B0
:103FA00007FF04236B60A3780422053B022B00D992
:103FB000002202236260EB56072B40D1019B002BAD
:103FC0003DD0009B002B3AD019000322009800231B
:103FD0001140104203D004335B1A1B061B0E012252
:103FE0007370238832707380009B0022190001983F
:103FF000B3801BF037F9F08002202F1D0823320018
:1040000039002856FEF774FD0006000E09D00A207C
:1040100007B0F0BD802239005201FEF707FD6F6046
:10402000C1E7022039002856009B019AFEF760FD87
:104030000006000EEBD173786A68D3186B6020001D
:10404000FFF7F8FE002845D1237B012B42D12288BF
:10405000E3899A423ED0022022002E1D082331001F
:1040600028560C32FEF744FD0006000ECFD16368DF
:10407000208A083363601DF09CFF071E0FD122F0D9
:104080003BFB324C0100220031481EF055F8200065
:104090001EF052F82F481EF04FF80520B8E7022016
:1040A0003A00238A211D2056FEF784FD02203100AC
:1040B0003A00238A2856FEF71BFD06003800360614
:1040C0001DF07BFF360E00D0A1E76268637BD2183B
:1040D0006260B1E76368228A08339B18627B9B1891
:1040E00063600028ABD00223EB56072B12D00220CE
:1040F000205607280CD100230293174B03AA0393E1
:1041000002A90423FEF7F4FC0006000E00D07EE7AF
:1041100000207DE70023022003AA205602A9029373
:104120000433FEF747FD03061B0E0920002B00D0C9
:104130006EE7022002932856043303AA02A9FEF771
:10414000D7FC0006000ED2D061E7C0460777050015
:104150008C6A050010740500A800A5A5F7B5050038
:104160000E000192FFF7EAFE041E2CD12F8A019B5C
:104170009F4202D3002B00D01F0002206B68320048
:1041800008336B6028563B00291DFEF713FD04061B
:10419000240E1AD12200390030001BF063F86B8A1C
:1041A000834210D022F0A8FA094C010022006B8A49
:1041B00008481DF0C1FF2000698A1DF0BDFF0648B8
:1041C0001DF0BAFF0E242000FEBD0924FBE7C04607
:1041D000197705008C6A05001074050013B50400FA
:1041E000FFF7ACFE002813D16368A26801939342E5
:1041F0000FD26B46A478DA1C240624161070012313
:10420000200001A9FEF774FC0006000E00D00A2071
:1042100016BD22F071FA074C0100220006481DF07D
:104220008BFF20001DF088FF04481DF085FF0B2048
:10423000EEE7C0462C7705008C6A05001074050077
:104240000123F0B55B428FB004000D00171E0293EE
:1042500003930FD122F050FA01006A4C22006A4801
:104260001DF06AFF20001DF067FF68481DF064FF25
:104270000A2510E0002911D122F03EFA644C010019
:10428000220061481DF058FF20001DF055FF5F48D7
:104290001DF052FF053528000FB0F0BD0223C356B4
:1042A000052B06D0062B0FD022F026FA594C010020
:1042B000D4E7594E3B00328808339A4206D222F0A6
:1042C0001BFA564C0100C9E7554EF3E772689B187C
:1042D000802252019446934226D904AE330007CC83
:1042E00007C306CC06C3002102AB9983072302A8AB
:1042F0008377634608220CA80A910B931EF07AFB81
:104300002A003B00300009A9FFF732FE021E01D04F
:104310000725C0E70300310009A8FFF729FE051EA5
:10432000F6D1FFF7A3FDB6E72000FFF707FE002355
:104330000093984208D163680293228A637B083213
:104340009B181B041B0C0093032239007368114057
:10435000039363600023174203D004335B1A1B06E8
:104360001B0E03226373238839002273E38100222A
:10437000280027821AF076FF60820220231D08336E
:10438000019320560823019A211DFEF7B1FB000678
:10439000000E00D06CE702203B002A002056211DB1
:1043A000FEF7A6FB0006000E00D061E70123022005
:1043B00023732056019A03A9FEF79AFB05062D0EDA
:1043C00000D055E70822637B52423188D21BD21AB3
:1043D000521832806268D3187360029B013300D197
:1043E00059E7022009AA2056012302A91570FEF7F9
:1043F0007FFB05062D0E00D03AE73388009AD318CC
:10440000338048E73E7705008C6A0500107405008C
:104410004E77050060770500DC5940006D77050098
:10442000E4594000F0B591B0160014000191130753
:1044300003D0140901342405240C019B002B12D154
:1044400022F05AF92E4C010022002E481DF074FE75
:1044500020001DF071FE2C481DF06EFE0523009318
:10446000009811B0F0BD2622052702AB98849B1856
:104470001F7004230C93802300215B011E3A0EA8B9
:104480000D931EF0B7FA20001DF093FD051E0FD10D
:1044900022F032F91D4C010022001A481DF04CFE9A
:1044A00020001DF049FE18481DF046FE0097D7E792
:1044B000010022000BA8FFF751FE009000280AD14E
:1044C0002F00240924016419BC4208D132002900BC
:1044D00001981EF06FFA28001DF06FFDC0E739004B
:1044E000102203A81EF066FA07AA03A908481DF0C7
:1044F000EFFD3800102207A91EF05CFA1037E3E741
:10450000077705008C6A0500107405004E770500DA
:10451000CA594000F0B50F00160014008FB0130701
:1045200003D0140901342405240C002F11D122F0EA
:10453000E3F80100294C220029481DF0FDFD200070
:104540001DF0FAFD27481DF0F7FD052420000FB0EF
:10455000F0BD6B46262298849B18213A1A700423DA
:104560000A93802300215B0103320CA80B931EF0F9
:1045700041FA20001DF01DFD051E04D122F0BCF8FB
:10458000194C0100D7E7220000211EF033FA320057
:10459000390028001EF00EFA2E0027093F017F196E
:1045A000B74209D12200290009A8FFF749FE0400FB
:1045B00028001DF002FDC9E73100102201A81EF0FD
:1045C000F9F905AA01A909481DF07EFD3000102265
:1045D00005A91EF0EFF91036E2E7C046077705009F
:1045E0008C6A0500107405004E770500CA5940001A
:1045F0007FB56B466A46988005239371013B029311
:10460000802308225B01002104A803931EF0F2F925
:1046100001A8FFF7E3FD07B000BD802110B505201C
:104620004901FFF7C5FB10BD30B587B06B461500DB
:1046300098806A4606239371023B029380230C0004
:104640005B010822002104A803931EF0D3F92A007D
:10465000210001A8FFF782FD07B030BD30B587B05B
:104660006B46150098806A4606239371023B0293BD
:1046700080230C005B010822002104A803931EF094
:10468000B9F92A00210001A8FFF7DAFD07B030BD13
:1046900037B5040001A8FFF745FB00280AD16B4697
:1046A0009D1C2800FFF756FB002804D12B88019A97
:1046B0009B1823603EBD0920FCE7802110B508202F
:1046C0004901FFF775FB10BD10B500210220FFF76F
:1046D000BFF810BD07B56B460122D91D0870062032
:1046E000FFF7BCFF0EBD0000014B18787047C046B5
:1046F000EC59400010B5054C0022200004491DF083
:10470000F9FB200003491DF01FFC10BDF0594000CB
:10471000C94603008813000010B50020FFF7DAFF38
:104720000022014B1A7010BDEC59400030B5150045
:104730000C0089B00100042201A81EF03BF92900F9
:10474000102202A81EF036F92100062206A81EF04B
:1047500031F91A2201A90220FFF7DCFE09B030BDB1
:10476000F0B58BB007000D00160002201A2203A935
:10477000FFF758FE041E18D021F0BEFF3A27134E53
:10478000134D010033002A001248019400971DF0D8
:10479000D3FC23003A00310028001DF0CDFC0E4868
:1047A0001DF0CAFC20000BB0F0BD03A904223800A4
:1047B0001EF000F904A9102230001EF0FBF80622BA
:1047C000280008A91EF0F6F8ECE7C046E8770500D7
:1047D000767705008C6A0500107405000123024AF3
:1047E000517B0B43537370479C5A400010B5104CDB
:1047F000062220000F491EF0DDF800230E48E25C7F
:104800001A540133062BFAD17222043B83711333FD
:10481000C3714F3303720233437210338372073B09
:10482000C37242730E3B0F3A03738273C37310BD9E
:10483000905A40008B7705009C5A400030B5002408
:10484000BBB00922210004A803941EF0D3F81D2256
:10485000210008A807941EF0CDF83322210011A8EA
:1048600007AD10941EF0C6F806222A4803A91AF0D4
:10487000DFFF1022290028481AF0DAFF274A0095A6
:104880001268274903AB10A81EF03AFF1EA81DF0BE
:10489000DFF801280DD021F02FFF224C010022006B
:1048A00021481DF049FC20001DF046FC1F481DF06A
:1048B00043FC10A8FDF7BAF910A902001EA81DF0CC
:1048C000F1F801280DD021F017FF194C010022004A
:1048D00015481DF031FC20001DF02EFC13481DF082
:1048E0002BFC144C1EA920001DF007F901280DD047
:1048F00021F002FF104D01002A000B481DF01CFCA6
:1049000028001DF019FC09481DF016FC20003BB0E2
:1049100030BDC046905A4000805A4000985A40002E
:10492000DD770500927705008C6A0500107405009C
:10493000A4770500405A4000B877050030B505005F
:1049400089B010220C0068460C491EF033F8102282
:10495000290004A81EF02EF8002304AA6846117846
:10496000C05C0133414011700132102BF6D122009E
:1049700004A903481DF0A8FB09B030BDCB770500A2
:10498000605A40001FB50A000C00010008481DF0E5
:104990009FFB1022684607491EF00CF80023694669
:1049A000E25CC95C4A40E2540133102BF7D11FBDD1
:1049B000605A4000CB770500F0B500240500BFB079
:1049C00009220E0004A8210003941EF013F81D22F2
:1049D000210008A807941EF00DF84422210011A818
:1049E00007AF10941EF006F806222D4803A91AF00E
:1049F0001FFF102239002B481AF01AFF102229003D
:104A000010A81DF0D7FF284A00971268274903AB6A
:104A100014A81EF075FE22A81DF01AF801280DD06A
:104A200021F06AFE224C0100220022481DF084FB86
:104A300020001DF081FB20481DF07EFB10A8FDF733
:104A4000F5F810A9020022A81DF02CF801280DD0BD
:104A500021F052FE194C0100220016481DF06CFB9B
:104A600020001DF069FB14481DF066FB144822A9C4
:104A70001DF043F801280DD021F03EFE114C01003D
:104A800022000C481DF058FB20001DF055FB0A4881
:104A90001DF052FB31002800FFF750FF3FB0F0BD82
:104AA000905A4000805A4000985A4000DC77050038
:104AB000927705008C6A050010740500A477050044
:104AC000605A4000B877050010B520220021024846
:104AD0001DF090FF10BDC046605A4000002902D072
:104AE0000122014B1A707047EC5A4000F0B5254C7A
:104AF0001E0023688BB0029003910192002B03D11A
:104B0000282021F0D5FD20602468002C0FD121F051
:104B1000F3FD1D4C010022001C481DF00DFB200080
:104B20001DF00AFB1A481DF007FB0BB0F0BD05ADE8
:104B30001422002128001DF05DFF164FEE7038781A
:104B4000033843425841029B0001034318001F23CE
:104B50001840039B28706B70019B002B04D032001F
:104B6000190006A81DF026FF0B4B7868A3610B4BBC
:104B70002562E361331DA3840028D6D0210006F00E
:104B800013F9D2E7685B4000027805008C6A0500E3
:104B900010740500F05A4000781B4000A14B030040
:104BA00010B5044C2068002803D021F093FD0023A9
:104BB000236010BD685B4000F0B589B003AD1600FE
:104BC000009014220191280000211C001DF012FF0A
:104BD00002220020104F31003B78EC70033B1B0693
:104BE0001B0E9A424041009B0001034318001F2303
:104BF0001840019B2870220004A86B701DF0DAFE9B
:104C00007868002806D0231D1B042A0003491B0CCA
:104C100006F0AAF809B0F0BDF05A4000DC1B4000D5
:104C200030B5022585B008AC24880295CD68009483
:104C3000019505F0ADFF05B030BD30B585B06C46CF
:104C400005002100FFF77AFE2B0007CC07C322687E
:104C50001A6005B030BD00001FB510220B21684658
:104C60001DF0C8FE134B0F201A0019005A3259319B
:104C700009781278014012010A4369460A70190046
:104C80006A465C3109786846517019005D310978CF
:104C9000917019005F335E3109781B78D170137100
:104CA000FFF7CBFF10236A4624210020FFF784FF83
:104CB00005B000BDF05A40001FB504006946FFF77B
:104CC00061FE1022694620001DF074FE1FBD07B56D
:104CD000FF236A46D3716B460122D91D0D20FFF7D1
:104CE000A3FC6B46D8790138434258410EBD10B53C
:104CF0000E20FFF77DFC10BD70B500250A4B0B4C54
:104D00001D7023780600052B0CD0200008301DF004
:104D100011F93100606805F06BF829001820257042
:104D2000FEF796FD70BDC046EC5A4000F05A4000B8
:104D300010B5194B1B78002B0ED121F0DDFC174C60
:104D40000100220016481DF0F7F920001DF0F4F9CB
:104D500014481DF0F1F910BD134B18780528FAD846
:104D6000FBF7D0FB03070D0711163B20FFF7C4FF2D
:104D7000F1E7083318000D491DF0E6F8EBE70833BA
:104D800018000B49F8E7C821083318004901F3E778
:104D9000083318000749EFE7EC5A4000097805008E
:104DA0008C6A050010740500F05A400060EA0000AB
:104DB00010270000B80B000070B5194C207801389E
:104DC000032805D8FBF79EFB0207020B0023237084
:104DD000FFF7AEFF70BDFFF777FE0123F7E7220074
:104DE00058321378591C1170042B16D921F084FC09
:104DF0000C4D01002A000C481DF09EF928001DF002
:104E00009BF90A481DF098F90323237000230F2112
:104E10001A001800FFF76AFEDAE7FFF71DFFD7E771
:104E2000F05A4000247805008C6A050010740500D3
:104E3000F0B5437807000C008DB02F2B00D15BE15B
:104E40008378002B03D11F220378934327D021F0CE
:104E500053FC0421029038001AF0B8FCBF4DC04E3C
:104E600003002A00029930001DF066F90421380081
:104E70001AF0ACFC010028001DF05EF9B94D2800C5
:104E80001DF05AF921F038FCB74A010030001DF03E
:104E900053F9B5481DF050F928001DF04DF97D7803
:104EA000202D00D1C4E019D8122D00D181E0142D9D
:104EB00000D199E0102D61D021F01EFCAB4C010017
:104EC00022007B78A6481DF037F9200079781DF084
:104ED00033F9A4481DF030F90DB0F0BD252D00D1F7
:104EE000FCE12F2D00D107E1222DE5D1142C00D0BB
:104EF00025E19F4C2378032B00D020E11125381D9C
:104F0000FFF7DAFE10223E780A2108A81DF072FD94
:104F10003B79360704AA360FAD18002B1CD1BA799D
:104F20007B7912021A43FB791B041A433B7A1B0656
:104F30001343904A93420FD9BA7A7B7A12021A43EA
:104F4000FB7A1B041A433B7B1B061343F022013BF5
:104F50009202934200D29EE0002304AA13742B70A5
:104F60006B70AB70EB700F2304AA537508A8FFF7A2
:104F700064FE10232321300008AA89E0142C00D0FD
:104F8000DDE002217A4A13788B43012B00D0D6E072
:104F90003C78381D117008A9FFF70EFD2B00112178
:104FA0002407240F08AA2000FFF7A0FDFFF7C0FE8A
:104FB00092E7052C00D0C2E06D4D2B78022B00D07B
:104FC000BDE000233C783F79240708AE240F3370FE
:104FD000012F06D1FFF778FD2F7001233200132136
:104FE000E1E703232B70F8E7142C00D0A7E0604D15
:104FF0002B78032B00D0A2E0381DFFF75DFE3C7834
:105000003B792407240F002B03D1FFF75DFD01231B
:105010002B7008AD10220F2128001DF0EBFC01239E
:1050200028002B70FFF709FE10232A001521BAE78C
:105030004F4D2B78142C06D1032B00D07FE0381D68
:10504000FFF73AFE03E0052C79D1012B77D13E79A9
:10505000002E74D10C220B2109A83C782F781DF06A
:10506000C9FC112304AA9B18042208AD2E70240742
:105070001A70033A5A709A70DE70240F0523032FBA
:1050800003D12800FFF7D9FD10232A002121200099
:10509000FFF792FD8AE7200004231C2200215830EC
:1050A00023701DF0A7FC23003A7965331A70BA7992
:1050B0007B7912021A43FB791B041A433B7A1B06C5
:1050C0001343A366BA7A7B7A12021A43FB7A1B0453
:1050D0001A433B7B1B061343E366BB7B7A7B1B02B5
:1050E0001343220070321380FB7B72342370012340
:1050F00004AA1374002332E7FB78039304339C4221
:105100001DD11F223B789343029318D1184C23786A
:105110000493042B18D1BA7813071B0F12099A4273
:105120002CD221F0E9FA144C010022000C481DF0A9
:1051300003F820001DF000F80A481CF0FDFF0C4B9E
:105140001B78042B00D1C7E6002338781A0000072B
:105150000F21000FFFF7CAFCBEE6C0462F780500FE
:105160008C6A05001074050037780500BA780500D0
:10517000F05A4000040101004B78050025005B3522
:105180002A78934222D021F0B7FAFA782B7801924C
:10519000BA788A4E1207120F010000928848320036
:1051A0001CF0CAFFBA78FB781207120F297830007A
:1051B0001CF0C2FF583483481CF0BEFF23785A1CF1
:1051C0002270002BBBD1FFF747FDEFE6E26D039B9A
:1051D0009B18E26E934210D921F08EFAFB787A4D3B
:1051E000009301002A00E36D75481CF0A5FF28001C
:1051F000FA78E16D1CF0A0FF9EE73B1D05932300AC
:10520000029A58331A70714B039E1D78002D23D0DB
:105210006F4B391D5819049B5A1B1DF0CBFBFEF731
:1052200018F96A4B049A1978E36D6534591A207895
:10523000674BFEF715F9FEF705F9644B1D78049BE3
:105240005D1B2D062D0E3B1D5B190593039BAB4289
:1052500042D3761B3604360C5E4C03233100220009
:105260001940603211709E430CD0FEF7F2F8E36DE6
:105270003200E918230065331878059BFEF7F0F833
:10528000FEF7E0F8230060331A78002A05D02000EA
:10529000059B613099191DF08DFB22002100BB7820
:1052A00059321B071B0F1370BA785A3112090A7052
:1052B000F978E06D0918E165934201D0581C02901D
:1052C0002000029D5B300570E06E814200D17AE7DC
:1052D000934200D06AE676E7029EBDE7142C00D028
:1052E0002DE73C4C2378042B00D02DE7381DFFF729
:1052F000E3FC03223B7822701B071B0F02933B79D0
:10530000012B00D020E70A270F210D3208A81DF03D
:1053100071FB04ABFF182300653318783900FEF7E2
:10532000E2F804AB264E274D1874002841D0230024
:1053300070331A883B889A4226D10523092101221D
:10534000237004ABC9180D200A70FFF787F9224BB0
:10535000042207A90E200793FFF7DCF821F0CCF90F
:1053600001001E4C220030001CF0E6FE20001CF064
:10537000E3FE28001CF0E0FE08A8FFF75EFC102307
:105380002621029808AA83E6002304AA137421F0B8
:10539000B3F9134F01003A0030001CF0CDFE380085
:1053A0001CF0CAFE28001CF0C7FE04AB1B7C002BBF
:1053B000C3D121F0A1F90B4C0100D3E753780500CC
:1053C0008C6A0500107405006E780500505B400083
:1053D000515B4000F05A400001A5A5A58A78050060
:1053E000A5780500AF78050010B510001C1E02D08E
:1053F0001900FFF71DFD200010BD10B510001C1E88
:1054000002D01900FFF714FD200010BD10B50848A8
:1054100005F05EFB074C7822002120001DF0EAFA1F
:1054200020000022044908301CF064FD002010BD5B
:10543000F41A4000F05A4000B94D0300704710B50F
:1054400000210520FEF704FA10BD10B50021092047
:10545000FEF7FEF910BD000070B50E4C456C2378C8
:105460001A061616002A04DA7F221340783A1343EC
:10547000237029002020FEF7EBF9002E08DA8023A4
:1054800022785B42134329001F202370FEF7E0F9C6
:1054900070BDC046D05B400010B521F02DF9064C20
:1054A0000100220005481CF047FE20001CF044FECD
:1054B00003481CF041FE10BDCB7805008C6A050046
:1054C00010740500F8B5041E194E1A4D10D021F0C5
:1054D00013F90100184F23003A0030001CF02CFE95
:1054E000210038001CF028FE28001CF025FEF8BD25
:1054F00021F002F9114F01003A0030001CF01CFEAF
:1055000038001CF019FE28001CF016FE22000C4981
:105510000C480FF065FB041E04D021F0EDF80A4F93
:105520000100D8E701000320FEF792F9DFE7C0464B
:105530008C6A050010740500D6780500E578050032
:105540006C5B40007C5C4000FC78050010B50400FA
:1055500040301CF0EFFC200090301CF0EBFC10BD44
:1055600010B50C000800FFF7F1FF21001C20FEF72A
:105570006FF9230029331B78002B04D121001D2053
:10558000FEF766F910BD20000A2190301CF0DCFC0B
:10559000F8E710B50C000800FFF7D8FF21001A202B
:1055A000FEF756F910BD0200002329321370C362C2
:1055B00043637047F7B504001CF042FC636B0200C4
:1055C00019000A390020914254D3981A0A2121F077
:1055D00099F9802223890090A58A5200934260D1D4
:1055E00001232372E68A0020AE421BD0009B454F68
:1055F0001904090CAE425ED9731B1800019321F007
:1056000085F90004000C031CB84200D23B1C3E4A42
:105610001B041B0C521B9A4202DB721B9A4247DA94
:10562000A6820120258C668CB54223D0009B1904EC
:10563000090CB54250D2771B380021F067F90004FD
:10564000000C031CBF2800D8C02330491B043200C3
:105650001B0C491B994204DB9F4202DBED182A0414
:10566000120C9B181A1C1B041B0CB34200D9321CD1
:1056700022840120637A227A9A4207D1A18AE28A9F
:10568000914203D1218C628C914201D0002807D134
:1056900000202372E38AA382638C23842934207040
:1056A000FEBD012B9ED1002D00D09BE7257299E70E
:1056B0005D19A582B5E7A81B21F028F90004000CAC
:1056C000031CB84200D23B1C1B041B0CAB42A7D8E6
:1056D000ED1AB542EDDAA3E7A81B21F017F9000493
:1056E000000C031CBF2800D8C023094A1B041B0C54
:1056F0009A18AA4202DAED1AB54201DA2684B8E70E
:105700002584B6E78F020000FFFF0000204E000056
:105710001F03000070B5FCF789FB084E04003278C7
:10572000074D002A05D1280006491CF0E3FB0123A0
:105730003370280021001CF007FC70BD785C40002D
:10574000D85B40003F54030010B502481CF0F2FB48
:1057500010BDC046D85B400010B5FFF73FF80348C6
:105760000AF01EFF01200FF007FA10BD60EA0000EA
:1057700070B5084D084C2A78002A05D12000074949
:105780001CF0B8FB01232B70200005491CF0DCFB4A
:1057900070BDC046795C4000285C40004B5403005B
:1057A00060EA000010B502481CF0C4FB10BDC04602
:1057B000285C4000F7B5134F04003A780E00124DF4
:1057C000002A05D1280011491CF094FB01233B70ED
:1057D0006B46DF1D0121380004F07AFD002C0BD14F
:1057E000FA203B7840015843FF2121F08FF8FA233B
:1057F000DB00C4182404240C280021006E641CF073
:10580000A3FBF7BD7A5C4000805B40005954030065
:105810000020704710B5002818D0C268002A15D0A3
:10582000037A0024D42B0FD15178137809025B1826
:1058300007491B041B0C8B4206D19378032B03D121
:1058400020000449FFF7B6FF200010BD024CFBE723
:1058500009F00000782F4000FFFF00000C4A137889
:10586000190603D57F210B401370704701210B42AD
:1058700001D08B431370022113780B4201D08B436C
:105880001370042113780B42EFD08B43ECE7C04632
:10589000D05B400070B5134C200000F07AF900286E
:1058A00005D02000FCF7C8FA200000F06BF920F0CA
:1058B00023FF08210600200019F088FF0A4D03008D
:1058C0002A00310009481CF037FC0821200019F09B
:1058D0007DFF010028001CF02FFC05481CF02CFC6B
:1058E00070BDC046589D40000D7905008C6A0500CA
:1058F0001074050003003F2010B518403F2807D161
:10590000074908480A0019F01AFB0120404210BD5F
:10591000054A9B095B009B5A584364235843F6E7AA
:105920005579050013790500041C4000F7B50D00FA
:105930000C00002701902035019A3B061B0E974270
:1059400001D10020FEBD2000237022001349403009
:105950001CF0D0FA20002200114990301CF0CAFA45
:10596000012363720F4B0137E3820F4B29342B80E5
:105970006B8041236B7223332B721CF061FA052379
:105980002E7AFF345E433618EE60687AFFF7B2FF76
:1059900036186E612935FF35CEE7C04693550300B2
:1059A00061550300CCCCFFFF204E0000F7B5871CEB
:1059B00000910500FC7F1CF043FA009B0600002BC1
:1059C00027D16D6A854224D2431B0193F87FFFF7EC
:1059D00091FF3F240300421C1BD0009C721B82429B
:1059E00017D2A81B6421C01820F08CFF3E23154A53
:1059F000D1881D004D43A8420BD894881D006543F3
:105A0000A84208D920F07EFF4024644204432406C3
:105A1000240E2000FEBD51881D004D43A84204D92C
:105A2000210020F06FFF8024EFE712885343984253
:105A300003D920F067FF4024E8E7110020F062FF5F
:105A40000406E5E7041C4000F0B5204F85B00600D1
:105A50003D7802911CF0F4F9731E01900F2B00D8D1
:105A600001263C78231D039319E00521280020F02E
:105A70006DFE0906164B090EC900CB5C029A9342D3
:105A80000AD1134B59184B88B34205D1114A4B68C0
:105A90009B18019A9A4216D301352D062D0E039BB1
:105AA000AB42E2DA0A4B0299E200D154601C9B1827
:105AB000019A000605215E805A60000E20F046FE25
:105AC0000020397000E0012005B0F0BD7C5B400093
:105AD000B05C400070170000F8B520F00DFE1F4CC0
