:020000040000FA
:1000000018F09FE518F09FE518F09FE518F09FE5C0
:1000100018F09FE518F09FE518F09FE518F09FE5B0
:1000200030010000400000004400000060000000BB
:100030007C000000B800000098000000B400000040
:100040007E5E00EA03002DE90105A0E3001090E5C3
:10005000010051E30300BDE8D900000A7F5E00EA19
:1000600003002DE90105A0E3001090E5010051E334
:100070000300BDE8CC00000A805E00EA03002DE921
:100080000105A0E3001090E5010051E30300BDE885
:10009000B900000A815E00EA03002DE90105A0E332
:1000A000001090E5010051E30300BDE8B600000A2E
:1000B0008A5E00EA915E00EA805E00EA00000000CD
:1000C0000000000000000000000000000000000030
:1000D0000000000000000000000000000000000020
:1000E0000000000000000000000000000000000010
:1000F0000000000000000000000000000000000000
:10010000424B33363333100084004000A00400001B
:10011000BCFF400010000000DCFF400010000000A9
:10012000CCFF400010000000ECFF40001000000079
:1001300003A0A0E1B0319FE5F07F23E9000423E9AB
:10014000070023E9DF00A0E300F021E144001FE500
:1001500044101FE5003081E00040A0E103D0A0E1A1
:1001600088219FE5030054E104208434FCFFFF3A1A
:10017000D700A0E300F021E170001FE570101FE53B
:10018000003081E00040A0E103D0A0E15C219FE5C8
:10019000030054E104208434FCFFFF3ADB00A0E3B9
:1001A00000F021E19C001FE59C101FE5003081E07C
:1001B0000040A0E103D0A0E130219FE5030054E11D
:1001C00004208434FCFFFF3AD200A0E300F021E1D8
:1001D000C0001FE5C0101FE5003081E00040A0E135
:1001E00003D0A0E108219FE5030054E104208434FA
:1001F000FCFFFF3AD100A0E300F021E1DC001FE5A5
:10020000DC101FE5003081E00040A0E103D0A0E158
:10021000E0209FE5030054E104208434FCFFFF3A12
:100220000080A0E30090A0E300A0A0E300B0A0E362
:1002300000C0A0E3D300A0E300F021E124011FE50A
:1002400024111FE5003081E00040A0E103D0A0E1CF
:10025000A4209FE5030054E104208434FCFFFF3A0E
:100260000E0000EB170000EB0000A0E30010A0E37D
:100270000020A0E30030A0E30040A0E30050A0E392
:100280000060A0E30070A0E30080A0E30090A0E382
:1002900000A0A0E300B0A0E300C0A0E3F70000EAE4
:1002A00058009FE558109FE558209FE50130A0E1D8
:1002B000023083E0030051E1044090340440813473
:1002C000FBFFFF3A1EFF2FE13C009FE53C109FE53E
:1002D000003081E00040A0E10020A0E3030054E1F1
:1002E00004208434FCFFFF3A1EFF2FE16000400031
:1002F000AAAAAAAACCCCCCCCDDDDDDDDBBBBBBBBC6
:10030000BC0F00008000400004000000840040009A
:10031000A00400000B0001000020202230B50124C1
:1003200009E00D00D5409D4205D31D009540491BB5
:100330002500954040191500521E002DF1DC30BDFE
:100340001206120E01E00270401C491EFBD27047DB
:100350000022F5E713000A0010B504001900FFF7AA
:10036000EFFF200010BD0321001D401E0378120284
:100370001A43491EF9D510007047000001C08FE2F2
:100380001CFF2FE1102000F0FDFDFEE704109FE5AB
:1003900004008FE2CA0000EAAC0F00002573203D84
:1003A0003D3D3D3D3D3D3D0A0000000001C08FE266
:1003B0001CFF2FE1102000F0E5FDFEE7102000F00B
:1003C000E1FDFEE701C08FE21CFF2FE1102000F0ED
:1003D000D9FDFEE7102000F0D5FDFEE700000FE19B
:1003E000401080E301F021E1400000E21EFF2FE118
:1003F00000000FE1801080E301F021E1800000E2C5
:100400001EFF2FE100000FE14000C0E300F021E1FA
:100410001EFF2FE100000FE18000C0E300F021E1AA
:100420001EFF2FE110B500F0CBF8002833D11B4898
:10043000FFF799FF1A4A904203D018498B8A9342DA
:1004400001D1012010BD002805D00800898B0029AA
:1004500005D0052010BD13A000F038F9F1E7001D0C
:10046000FFF781FF01210903884214D30B480C30A8
:10047000FFF779FF00F0A8F9040008481030FFF7F3
:1004800072FFA04207D105481830FFF76CFF002823
:1004900001D0002010BD022010BD0000040140006A
:1004A000FFFF0000416C72656164792075706461C2
:1004B00074650D0A0000000008B500200090034993
:1004C0000422684600F01AFB08BD000004F0070093
:1004D00010B50648FFF747FF04000448001FFFF768
:1004E00042FF210000F0D0F910BD00000C014000D7
:1004F000F7B500208CB0049005900690079001207D
:100500000003012A04D0022A07D001200FB0F0BD59
:100510000C9A161815000C0003E00C9A161A5518C0
:10052000441A300000F018FA27000196029519E0ED
:10053000102F01D9102000E038000200009002992D
:1005400004A800F02BFA009A019904A800F0D6FA4A
:1005500002990098081802900199009808180190D3
:1005600000983F1A002FE3D10C9800F0F5F901969E
:1005700013E0102C01D9102700E0270001993A0060
:1005800004A800F00BFA3A00290004A800F0B6FA1B
:100590000198ED19C019E41B0190002CE9D130003D
:1005A00000F0DAF90020B1E700B500F0BBFB034929
:1005B000086000F053FA00F063FA00BD80004000CC
:1005C00008B57F2104220903684600F0E7F90649CF
:1005D0000098884206D105490548202200F0DEF93E
:1005E000002008BD012008BD01EFCDAB04F00700DD
:1005F0000401400030B5040900070023000F002962
:1006000004D0012905D0022903D101E00C2300E028
:10061000082320211025002A04D0012A05D0022A0F
:1006200007D105E030210B4303E00B43AB4300E06F
:100630008B43E1000818024980004018036030BD78
:10064000000A800002090007000FD2001018820083
:100650000548121810680223002901D0184300E051
:100660009843106070470000000A800010B5040035
:100670000121FFF7E7FF00212000FFF7E3FF10BD96
:1006800001C08FE21CFF2FE110B500F071FC0122C8
:1006900094051100200000F063FC094800F000FC04
:1006A000FFF782FF00F048F8012802D11F20000266
:1006B000804701220021200000F052FC10BD000004
:1006C00040420F0001C08FE21CFF2FE10FB410B5B4
:1006D00003AC18E0252824D10878002801D0491C53
:1006E000029163281BD004DC002816D0582804D1BE
:1006F0001EE0732818D078281AD0252000F028FC96
:100700000298401E029002990878491C0291002824
:10071000E0D110BC08BC04B01847252001E02078C7
:10072000241D00F015FCEEE701CC00F07BFBEAE7AE
:1007300001CC00F057FBE6E710B5FFF773FE002889
:1007400007D100F0D5F9FFF7C3FE00F007F8FFF777
:10075000B3FE00F095F9012010BD000070B51348FC
:1007600088B0FFF700FE040010480C30FFF7FBFDD7
:1007700006190E480838FFF7F6FD05000CA0FFF734
:10078000A5FF0BE020222100684600F007F9202297
:100790002900684600F0B2F920342035B442F1D384
:1007A00006A0FFF793FF08B070BD000010014000E5
:1007B000436F70792053746172740A0075706461BC
:1007C000746520656E640A00F0B505000020C04322
:1007D00085B000901248FFF7C6FD040000F0E8FA6B
:1007E000002717E0102C01D9102000E0200006049B
:1007F000360C1022290001A800F0D0F80098320031
:1008000001A900F0C5FAA41BAD190197029703973F
:1008100004970090002CE5D1009805B0F0BD0000D1
:100820001C014000124AD06911680029FCDBC0217C
:1008300001401023194303071B0F0B4301214902F9
:1008400001400B430B4901400B430121890608403D
:100850000343D361084809490068884201D1084828
:1008600000E00848106010680028FCDB70470000BA
:100870000020800000FCFF038000400013311C00BA
:1008800000D0073600D00737F8B50405240D6218EC
:100890001605360D0A19050B921B2D03130B002CA0
:1008A00001D0012700E00027DF1B002F28DD009288
:1008B0000A00010013A0FFF709FF330022002900FE
:1008C00016A00097FFF702FF002C07D0012221009D
:1008D0002800FFF70DFE012000032D18002406E07C
:1008E000280000F039F8012000032D18641CBC42D8
:1008F000F6D3002E04D0022231002800FFF7F8FDC5
:100900000020F8BD203078257820307825782030F8
:100910007825782030782578200D0A002030782539
:100920007820307825782030782578203078257820
:100930000D0A00000121490388420AD305490A68CB
:10094000002AFCDB2F2212061043086008680028EA
:10095000FCDB70470020800070B504001F200002FF
:10096000844218D3FFF73AED0600FFF742ED0A493B
:10097000050008680028FCDB2D20000604430C60FD
:1009800008680028FCDB002E01D1FFF73CED002DAC
:1009900001D1FFF740ED70BD00208000F7B51500D4
:1009A0000E00FFF71CED0700FFF722ED0400009892
:1009B0002A00310000F00AF8002F01D1FFF722EDE4
:1009C000002C01D1FFF726ED0020FEBDF0B54C094B
:1009D000640188B0002AEC4629D0164B1D68002D12
:1009E000FBDB22E0134E336875042B40252523439F
:1009F0002D062B4333603368002BFCDB00232034AF
:100A000065460C4EB6689F005B1C082BEE51F8D370
:100A1000CB06DB0E07E06546ED5C491C0570401C0B
:100A2000521E04D05B1C202BF5D3002ADAD108B06B
:100A3000F0BD000000208000064801680029FCDBB2
:100A40000549016001680029FCDB40690006000ED1
:100A5000704700000020800000D0072300B5FFF79A
:100A6000E1FE0648C16970229143C161C16910224B
:100A70001143C16101680029FCDB00BD002080003A
:100A8000154800B500681549421A88421ED00BDC93
:100A90001349401818D0134940181AD01249401869
:100AA00010D0012809D10DE009208002101A04D0CD
:100AB0000E4940180AD0012808D09C21012000F0DE
:100AC000FBF800BDBC2102E0BC21F7E79421022025
:100AD000F5E71021FBE70000800040001340C8004C
:100AE000EDCEE3FF00D196FF003DC3FF0024E8FFF9
:100AF00000B50021012000F0DFF800BDF7B51500BA
:100B00000E00FFF76CEC0700FFF772EC0400009892
:100B10002A00310000F00AF8002F01D1FFF772EC33
:100B2000002C01D1FFF776EC0020FEBDF0B50700E8
:100B30004E098BB014000D00760103A8002A009026
:100B400047D0E80605D0009820223100FFF73EFF8D
:100B500004E00098FF222021FFF7F2FB1E48016805
:100B60000029FBDB33E0202C04D200982022310046
:100B7000FFF72CFFE806C00E08E03A780099641EE3
:100B80006D1C7F1C002C0A5402D0401C2028F4D37A
:100B9000114B00218A0003A8825818005A60491C92
:100BA0000829F7D301680029FCDB016801229207BC
:100BB00011400B2231439206114301600168002964
:100BC000FCDB0098FF2220212036FFF7B9FB002C28
:100BD000C9D10BB0F0BD000000208000F0B50700C7
:100BE000080A0002C3B0019015000E0002A8002AF6
:100BF00000905DD0300606D0FF22019900980132A6
:100C0000FFF7E4FE04E0FF220098511CFFF798FB79
:100C1000284C20680028FCDB606901218907084313
:100C200060613EE0FF2D05D8FF2201990098013256
:100C3000FFF7CCFE3006000E08E03A7800996D1EF2
:100C4000761C7F1C002D0A5402D0401CFF28F4D9CA
:100C5000606A0121C90708436062002002AA616A34
:100C6000135C090A090219436162401CFF28F6D986
:100C700020680028FCDB20680121890708400199D1
:100C800008430B2189060843206020680028FCDB0C
:100C90000198FF22FF30013001900098511CFFF7AE
:100CA0004FFB002DBED16169012080078143616146
:100CB00043B0F0BD0020800010B5164B0400D86989
:100CC0000F2212039043D861002C22D0022C20D88E
:100CD000D86989029A1311430843D861186800281B
:100CE000FCDB00F01FF80C490968884211D1012C87
:100CF00002D0022C02D003E0084900E00849196044
:100D000018680028FCDB7D200003186018680028A4
:100D1000FCDB10BD002080008000400000D0076494
:100D200000D00767084801680029FCDB074901601B
:100D300001680029FCDB00214A1E4260491C082989
:100D4000FBD30069704700000020800000D007340A
:100D50000120C0058168FF2281329143803181608A
:100D60008168C909C901491C81600849CA6902230F
:100D70001A43CA61426B40239A434263C26A1023FA
:100D80001A43C2628220C8617047000040008000A0
:100D900010B5064B07E00C7844402406A40D1C59FE
:100DA000000A6040491C521EF5D210BD24014000CB
:100DB00030B50A4B0A4C002108000022C50702D0BA
:100DC0004008584000E04008521C082AF6DB8A0020
:100DD000491CFF29A050EFDD002030BD2083B8ED75
:100DE0002401400030B599B000246D460BE00107A6
:100DF000090F092901D9573100E030312955641C08
:100E000000092406240E0028F1D107E02819203813
:100E1000C07F00F09DF8641E2406240E002CF5D13E
:100E200019B030BD10B5040002E000F091F8641C68
:100E300020780028F9D110BD10B5054C05A0A16B94
:100E4000FFF744FCE16B06A0FFF740FC10BD00007B
:100E5000200040000D0A7231333A2025780A000044
:100E60000D0A523134284C52293A2025780A0000C4
:100E7000094BD969FF22F1320A4002439813084016
:100E80000243064808400243580301400A43DA611E
:100E900018680028FCDB70470020800000FCFF037E
:100EA000012210B5D205D16849084900D16001007E
:100EB0000C48FFF72FFA0C4A702111605160401E58
:100EC00001020A483B310160094941604221016148
:100ED00000218161C161074801681022114301604E
:100EE00010BD00000024F400000A800000638000B0
:100EF0001040000040008000012210B5D205D168EA
:100F000002239943D16001000C48FFF703FA0C4A11
:100F100070219163D163401E01020A483B31016098
:100F2000094941604221016100218161C161074895
:100F3000016820221143016010BD00000024F4006C
:100F4000000A8000006A800010400000400080001D
:100F500002498A68D202FCD5C860704700638000ED
:100F60001201121800E002C09042FCD3704700004A
:100F70000348002181605A214160A52141607047EA
:100F8000000C8000044900224A6088605A204860B2
:100F9000A520486070470000000C800002485A21DC
:100FA0004160A52141607047000C80004972715F6B
:100FB000457863657074696F6E0000000000000082
:0400000500000130C6
:00000001FF
